{
  "contracts/Schoolm.sol": {
    "Schoolm": {
      "abi": [
        {
          "inputs": [],
          "name": "INVALID_ID",
          "type": "error"
        },
        {
          "inputs": [],
          "name": "STUDENT_NOT_FOUND",
          "type": "error"
        },
        {
          "inputs": [
            {
              "components": [
                {
                  "internalType": "uint256",
                  "name": "id",
                  "type": "uint256"
                },
                {
                  "internalType": "string",
                  "name": "name",
                  "type": "string"
                },
                {
                  "internalType": "string",
                  "name": "course",
                  "type": "string"
                },
                {
                  "internalType": "uint256",
                  "name": "age",
                  "type": "uint256"
                },
                {
                  "internalType": "enum Schoolm.Status",
                  "name": "status",
                  "type": "uint8"
                }
              ],
              "internalType": "struct Schoolm.StudentDetails",
              "name": "details",
              "type": "tuple"
            }
          ],
          "name": "another_registration",
          "outputs": [],
          "stateMutability": "nonpayable",
          "type": "function"
        },
        {
          "inputs": [
            {
              "internalType": "uint256",
              "name": "_student_id",
              "type": "uint256"
            }
          ],
          "name": "delete_student",
          "outputs": [],
          "stateMutability": "nonpayable",
          "type": "function"
        },
        {
          "inputs": [],
          "name": "get_all_students",
          "outputs": [
            {
              "components": [
                {
                  "internalType": "uint256",
                  "name": "id",
                  "type": "uint256"
                },
                {
                  "internalType": "string",
                  "name": "name",
                  "type": "string"
                },
                {
                  "internalType": "string",
                  "name": "course",
                  "type": "string"
                },
                {
                  "internalType": "uint256",
                  "name": "age",
                  "type": "uint256"
                },
                {
                  "internalType": "enum Schoolm.Status",
                  "name": "status",
                  "type": "uint8"
                }
              ],
              "internalType": "struct Schoolm.StudentDetails[]",
              "name": "",
              "type": "tuple[]"
            }
          ],
          "stateMutability": "view",
          "type": "function"
        },
        {
          "inputs": [
            {
              "internalType": "uint256",
              "name": "_student_id",
              "type": "uint256"
            }
          ],
          "name": "get_student_by_id",
          "outputs": [
            {
              "components": [
                {
                  "internalType": "uint256",
                  "name": "id",
                  "type": "uint256"
                },
                {
                  "internalType": "string",
                  "name": "name",
                  "type": "string"
                },
                {
                  "internalType": "string",
                  "name": "course",
                  "type": "string"
                },
                {
                  "internalType": "uint256",
                  "name": "age",
                  "type": "uint256"
                },
                {
                  "internalType": "enum Schoolm.Status",
                  "name": "status",
                  "type": "uint8"
                }
              ],
              "internalType": "struct Schoolm.StudentDetails",
              "name": "",
              "type": "tuple"
            }
          ],
          "stateMutability": "view",
          "type": "function"
        },
        {
          "inputs": [
            {
              "internalType": "string",
              "name": "_name",
              "type": "string"
            },
            {
              "internalType": "string",
              "name": "_course",
              "type": "string"
            },
            {
              "internalType": "uint256",
              "name": "_age",
              "type": "uint256"
            }
          ],
          "name": "register_student",
          "outputs": [],
          "stateMutability": "nonpayable",
          "type": "function"
        },
        {
          "inputs": [
            {
              "internalType": "uint256",
              "name": "_student_id",
              "type": "uint256"
            },
            {
              "internalType": "string",
              "name": "_new_name",
              "type": "string"
            }
          ],
          "name": "update_student",
          "outputs": [],
          "stateMutability": "nonpayable",
          "type": "function"
        },
        {
          "inputs": [
            {
              "internalType": "uint256",
              "name": "_student_id",
              "type": "uint256"
            },
            {
              "internalType": "enum Schoolm.Status",
              "name": "_new_status",
              "type": "uint8"
            }
          ],
          "name": "update_students_status",
          "outputs": [],
          "stateMutability": "nonpayable",
          "type": "function"
        }
      ],
      "evm": {
        "bytecode": {
          "linkReferences": {},
          "object": "6080604052348015600f57600080fd5b506119388061001f6000396000f3fe608060405234801561001057600080fd5b506004361061007d5760003560e01c80633f09a5381161005b5780633f09a538146100d85780638f3354fe146100f4578063c9b7292714610124578063daeb3821146101405761007d565b806315c5f3e3146100825780632773a2861461009e5780633ab9a9ec146100ba575b600080fd5b61009c60048036038101906100979190610d7b565b61015c565b005b6100b860048036038101906100b39190610f01565b610270565b005b6100c261036a565b6040516100cf91906111a1565b60405180910390f35b6100f260048036038101906100ed91906111c3565b610579565b005b61010e600480360381019061010991906111c3565b61077e565b60405161011b919061126d565b60405180910390f35b61013e6004803603810190610139919061128f565b6109f0565b005b61015a600480360381019061015591906113e8565b610b2a565b005b6000600160003373ffffffffffffffffffffffffffffffffffffffff1673ffffffffffffffffffffffffffffffffffffffff168152602001908152602001600020905060005b818054905081101561023957838282815481106101c2576101c1611431565b5b9060005260206000209060050201600001540361022c57828282815481106101ed576101ec611431565b5b906000526020600020906005020160040160006101000a81548160ff021916908360028111156102205761021f611017565b5b0217905550505061026c565b80806001019150506101a2565b506040517f5a9e653400000000000000000000000000000000000000000000000000000000815260040160405180910390fd5b5050565b6000600160003373ffffffffffffffffffffffffffffffffffffffff1673ffffffffffffffffffffffffffffffffffffffff168152602001908152602001600020905060005b818054905081101561033357838282815481106102d6576102d5611431565b5b90600052602060002090600502016000015403610326578282828154811061030157610300611431565b5b9060005260206000209060050201600101908161031e919061166c565b505050610366565b80806001019150506102b6565b506040517faca0832a00000000000000000000000000000000000000000000000000000000815260040160405180910390fd5b5050565b6060600160003373ffffffffffffffffffffffffffffffffffffffff1673ffffffffffffffffffffffffffffffffffffffff168152602001908152602001600020805480602002602001604051908101604052809291908181526020016000905b8282101561057057838290600052602060002090600502016040518060a0016040529081600082015481526020016001820180546104089061148f565b80601f01602080910402602001604051908101604052809291908181526020018280546104349061148f565b80156104815780601f1061045657610100808354040283529160200191610481565b820191906000526020600020905b81548152906001019060200180831161046457829003601f168201915b5050505050815260200160028201805461049a9061148f565b80601f01602080910402602001604051908101604052809291908181526020018280546104c69061148f565b80156105135780601f106104e857610100808354040283529160200191610513565b820191906000526020600020905b8154815290600101906020018083116104f657829003601f168201915b50505050508152602001600382015481526020016004820160009054906101000a900460ff16600281111561054b5761054a611017565b5b600281111561055d5761055c611017565b5b81525050815260200190600101906103cb565b50505050905090565b6000600160003373ffffffffffffffffffffffffffffffffffffffff1673ffffffffffffffffffffffffffffffffffffffff168152602001908152602001600020905060005b818054905081101561074857828282815481106105df576105de611431565b5b9060005260206000209060050201600001540361073b578160018380549050610608919061176d565b8154811061061957610618611431565b5b906000526020600020906005020182828154811061063a57610639611431565b5b9060005260206000209060050201600082015481600001556001820181600101908161066691906117b7565b506002820181600201908161067b91906117b7565b50600382015481600301556004820160009054906101000a900460ff168160040160006101000a81548160ff021916908360028111156106be576106bd611017565b5b0217905550905050818054806106d7576106d661189f565b5b60019003818190600052602060002090600502016000808201600090556001820160006107049190610c6e565b6002820160006107149190610c6e565b60038201600090556004820160006101000a81549060ff021916905550509055505061077b565b80806001019150506105bf565b506040517faca0832a00000000000000000000000000000000000000000000000000000000815260040160405180910390fd5b50565b610786610cae565b6000600160003373ffffffffffffffffffffffffffffffffffffffff1673ffffffffffffffffffffffffffffffffffffffff168152602001908152602001600020905060005b81805490508110156109b857838282815481106107ec576107eb611431565b5b906000526020600020906005020160000154036109ab5781818154811061081657610815611431565b5b90600052602060002090600502016040518060a0016040529081600082015481526020016001820180546108499061148f565b80601f01602080910402602001604051908101604052809291908181526020018280546108759061148f565b80156108c25780601f10610897576101008083540402835291602001916108c2565b820191906000526020600020905b8154815290600101906020018083116108a557829003601f168201915b505050505081526020016002820180546108db9061148f565b80601f01602080910402602001604051908101604052809291908181526020018280546109079061148f565b80156109545780601f1061092957610100808354040283529160200191610954565b820191906000526020600020905b81548152906001019060200180831161093757829003601f168201915b50505050508152602001600382015481526020016004820160009054906101000a900460ff16600281111561098c5761098b611017565b5b600281111561099e5761099d611017565b5b81525050925050506109eb565b80806001019150506107cc565b506040517faca0832a00000000000000000000000000000000000000000000000000000000815260040160405180910390fd5b919050565b6001600080828254610a0291906118ce565b9250508190555060006040518060a00160405280600054815260200185815260200184815260200183815260200160006002811115610a4457610a43611017565b5b8152509050600160003373ffffffffffffffffffffffffffffffffffffffff1673ffffffffffffffffffffffffffffffffffffffff168152602001908152602001600020819080600181540180825580915050600190039060005260206000209060050201600090919091909150600082015181600001556020820151816001019081610ad1919061166c565b506040820151816002019081610ae7919061166c565b506060820151816003015560808201518160040160006101000a81548160ff02191690836002811115610b1d57610b1c611017565b5b0217905550505050505050565b6001600080828254610b3c91906118ce565b9250508190555060006040518060a00160405280600054815260200183602001518152602001836040015181526020018360600151815260200160006002811115610b8a57610b89611017565b5b8152509050600160003373ffffffffffffffffffffffffffffffffffffffff1673ffffffffffffffffffffffffffffffffffffffff168152602001908152602001600020819080600181540180825580915050600190039060005260206000209060050201600090919091909150600082015181600001556020820151816001019081610c17919061166c565b506040820151816002019081610c2d919061166c565b506060820151816003015560808201518160040160006101000a81548160ff02191690836002811115610c6357610c62611017565b5b021790555050505050565b508054610c7a9061148f565b6000825580601f10610c8c5750610cab565b601f016020900490600052602060002090810190610caa9190610cef565b5b50565b6040518060a001604052806000815260200160608152602001606081526020016000815260200160006002811115610ce957610ce8611017565b5b81525090565b5b80821115610d08576000816000905550600101610cf0565b5090565b6000604051905090565b600080fd5b600080fd5b6000819050919050565b610d3381610d20565b8114610d3e57600080fd5b50565b600081359050610d5081610d2a565b92915050565b60038110610d6357600080fd5b50565b600081359050610d7581610d56565b92915050565b60008060408385031215610d9257610d91610d16565b5b6000610da085828601610d41565b9250506020610db185828601610d66565b9150509250929050565b600080fd5b600080fd5b6000601f19601f8301169050919050565b7f4e487b7100000000000000000000000000000000000000000000000000000000600052604160045260246000fd5b610e0e82610dc5565b810181811067ffffffffffffffff82111715610e2d57610e2c610dd6565b5b80604052505050565b6000610e40610d0c565b9050610e4c8282610e05565b919050565b600067ffffffffffffffff821115610e6c57610e6b610dd6565b5b610e7582610dc5565b9050602081019050919050565b82818337600083830152505050565b6000610ea4610e9f84610e51565b610e36565b905082815260208101848484011115610ec057610ebf610dc0565b5b610ecb848285610e82565b509392505050565b600082601f830112610ee857610ee7610dbb565b5b8135610ef8848260208601610e91565b91505092915050565b60008060408385031215610f1857610f17610d16565b5b6000610f2685828601610d41565b925050602083013567ffffffffffffffff811115610f4757610f46610d1b565b5b610f5385828601610ed3565b9150509250929050565b600081519050919050565b600082825260208201905092915050565b6000819050602082019050919050565b610f9281610d20565b82525050565b600081519050919050565b600082825260208201905092915050565b60005b83811015610fd2578082015181840152602081019050610fb7565b60008484015250505050565b6000610fe982610f98565b610ff38185610fa3565b9350611003818560208601610fb4565b61100c81610dc5565b840191505092915050565b7f4e487b7100000000000000000000000000000000000000000000000000000000600052602160045260246000fd5b6003811061105757611056611017565b5b50565b600081905061106882611046565b919050565b60006110788261105a565b9050919050565b6110888161106d565b82525050565b600060a0830160008301516110a66000860182610f89565b50602083015184820360208601526110be8282610fde565b915050604083015184820360408601526110d88282610fde565b91505060608301516110ed6060860182610f89565b506080830151611100608086018261107f565b508091505092915050565b6000611117838361108e565b905092915050565b6000602082019050919050565b600061113782610f5d565b6111418185610f68565b93508360208202850161115385610f79565b8060005b8581101561118f5784840389528151611170858261110b565b945061117b8361111f565b925060208a01995050600181019050611157565b50829750879550505050505092915050565b600060208201905081810360008301526111bb818461112c565b905092915050565b6000602082840312156111d9576111d8610d16565b5b60006111e784828501610d41565b91505092915050565b600060a0830160008301516112086000860182610f89565b50602083015184820360208601526112208282610fde565b9150506040830151848203604086015261123a8282610fde565b915050606083015161124f6060860182610f89565b506080830151611262608086018261107f565b508091505092915050565b6000602082019050818103600083015261128781846111f0565b905092915050565b6000806000606084860312156112a8576112a7610d16565b5b600084013567ffffffffffffffff8111156112c6576112c5610d1b565b5b6112d286828701610ed3565b935050602084013567ffffffffffffffff8111156112f3576112f2610d1b565b5b6112ff86828701610ed3565b925050604061131086828701610d41565b9150509250925092565b600080fd5b600080fd5b600060a0828403121561133a5761133961131a565b5b61134460a0610e36565b9050600061135484828501610d41565b600083015250602082013567ffffffffffffffff8111156113785761137761131f565b5b61138484828501610ed3565b602083015250604082013567ffffffffffffffff8111156113a8576113a761131f565b5b6113b484828501610ed3565b60408301525060606113c884828501610d41565b60608301525060806113dc84828501610d66565b60808301525092915050565b6000602082840312156113fe576113fd610d16565b5b600082013567ffffffffffffffff81111561141c5761141b610d1b565b5b61142884828501611324565b91505092915050565b7f4e487b7100000000000000000000000000000000000000000000000000000000600052603260045260246000fd5b7f4e487b7100000000000000000000000000000000000000000000000000000000600052602260045260246000fd5b600060028204905060018216806114a757607f821691505b6020821081036114ba576114b9611460565b5b50919050565b60008190508160005260206000209050919050565b60006020601f8301049050919050565b600082821b905092915050565b6000600883026115227fffffffffffffffffffffffffffffffffffffffffffffffffffffffffffffffff826114e5565b61152c86836114e5565b95508019841693508086168417925050509392505050565b6000819050919050565b600061156961156461155f84610d20565b611544565b610d20565b9050919050565b6000819050919050565b6115838361154e565b61159761158f82611570565b8484546114f2565b825550505050565b600090565b6115ac61159f565b6115b781848461157a565b505050565b5b818110156115db576115d06000826115a4565b6001810190506115bd565b5050565b601f821115611620576115f1816114c0565b6115fa846114d5565b81016020851015611609578190505b61161d611615856114d5565b8301826115bc565b50505b505050565b600082821c905092915050565b600061164360001984600802611625565b1980831691505092915050565b600061165c8383611632565b9150826002028217905092915050565b61167582610f98565b67ffffffffffffffff81111561168e5761168d610dd6565b5b611698825461148f565b6116a38282856115df565b600060209050601f8311600181146116d657600084156116c4578287015190505b6116ce8582611650565b865550611736565b601f1984166116e4866114c0565b60005b8281101561170c578489015182556001820191506020850194506020810190506116e7565b868310156117295784890151611725601f891682611632565b8355505b6001600288020188555050505b505050505050565b7f4e487b7100000000000000000000000000000000000000000000000000000000600052601160045260246000fd5b600061177882610d20565b915061178383610d20565b925082820390508181111561179b5761179a61173e565b5b92915050565b6000815490506117b08161148f565b9050919050565b8181036117c557505061189d565b6117ce826117a1565b67ffffffffffffffff8111156117e7576117e6610dd6565b5b6117f1825461148f565b6117fc8282856115df565b6000601f83116001811461182b5760008415611819578287015490505b6118238582611650565b865550611896565b601f198416611839876114c0565b9650611844866114c0565b60005b8281101561186c57848901548255600182019150600185019450602081019050611847565b868310156118895784890154611885601f891682611632565b8355505b6001600288020188555050505b5050505050505b565b7f4e487b7100000000000000000000000000000000000000000000000000000000600052603160045260246000fd5b60006118d982610d20565b91506118e483610d20565b92508282019050808211156118fc576118fb61173e565b5b9291505056fea264697066735822122078478e09ce0a45a81aec11ba8db602c7f8c7f1aa9ddebb89cceff073b9d7b79764736f6c634300081c0033",
          "opcodes": "PUSH1 0x80 PUSH1 0x40 MSTORE CALLVALUE DUP1 ISZERO PUSH1 0xF JUMPI PUSH1 0x0 DUP1 REVERT JUMPDEST POP PUSH2 0x1938 DUP1 PUSH2 0x1F PUSH1 0x0 CODECOPY PUSH1 0x0 RETURN INVALID PUSH1 0x80 PUSH1 0x40 MSTORE CALLVALUE DUP1 ISZERO PUSH2 0x10 JUMPI PUSH1 0x0 DUP1 REVERT JUMPDEST POP PUSH1 0x4 CALLDATASIZE LT PUSH2 0x7D JUMPI PUSH1 0x0 CALLDATALOAD PUSH1 0xE0 SHR DUP1 PUSH4 0x3F09A538 GT PUSH2 0x5B JUMPI DUP1 PUSH4 0x3F09A538 EQ PUSH2 0xD8 JUMPI DUP1 PUSH4 0x8F3354FE EQ PUSH2 0xF4 JUMPI DUP1 PUSH4 0xC9B72927 EQ PUSH2 0x124 JUMPI DUP1 PUSH4 0xDAEB3821 EQ PUSH2 0x140 JUMPI PUSH2 0x7D JUMP JUMPDEST DUP1 PUSH4 0x15C5F3E3 EQ PUSH2 0x82 JUMPI DUP1 PUSH4 0x2773A286 EQ PUSH2 0x9E JUMPI DUP1 PUSH4 0x3AB9A9EC EQ PUSH2 0xBA JUMPI JUMPDEST PUSH1 0x0 DUP1 REVERT JUMPDEST PUSH2 0x9C PUSH1 0x4 DUP1 CALLDATASIZE SUB DUP2 ADD SWAP1 PUSH2 0x97 SWAP2 SWAP1 PUSH2 0xD7B JUMP JUMPDEST PUSH2 0x15C JUMP JUMPDEST STOP JUMPDEST PUSH2 0xB8 PUSH1 0x4 DUP1 CALLDATASIZE SUB DUP2 ADD SWAP1 PUSH2 0xB3 SWAP2 SWAP1 PUSH2 0xF01 JUMP JUMPDEST PUSH2 0x270 JUMP JUMPDEST STOP JUMPDEST PUSH2 0xC2 PUSH2 0x36A JUMP JUMPDEST PUSH1 0x40 MLOAD PUSH2 0xCF SWAP2 SWAP1 PUSH2 0x11A1 JUMP JUMPDEST PUSH1 0x40 MLOAD DUP1 SWAP2 SUB SWAP1 RETURN JUMPDEST PUSH2 0xF2 PUSH1 0x4 DUP1 CALLDATASIZE SUB DUP2 ADD SWAP1 PUSH2 0xED SWAP2 SWAP1 PUSH2 0x11C3 JUMP JUMPDEST PUSH2 0x579 JUMP JUMPDEST STOP JUMPDEST PUSH2 0x10E PUSH1 0x4 DUP1 CALLDATASIZE SUB DUP2 ADD SWAP1 PUSH2 0x109 SWAP2 SWAP1 PUSH2 0x11C3 JUMP JUMPDEST PUSH2 0x77E JUMP JUMPDEST PUSH1 0x40 MLOAD PUSH2 0x11B SWAP2 SWAP1 PUSH2 0x126D JUMP JUMPDEST PUSH1 0x40 MLOAD DUP1 SWAP2 SUB SWAP1 RETURN JUMPDEST PUSH2 0x13E PUSH1 0x4 DUP1 CALLDATASIZE SUB DUP2 ADD SWAP1 PUSH2 0x139 SWAP2 SWAP1 PUSH2 0x128F JUMP JUMPDEST PUSH2 0x9F0 JUMP JUMPDEST STOP JUMPDEST PUSH2 0x15A PUSH1 0x4 DUP1 CALLDATASIZE SUB DUP2 ADD SWAP1 PUSH2 0x155 SWAP2 SWAP1 PUSH2 0x13E8 JUMP JUMPDEST PUSH2 0xB2A JUMP JUMPDEST STOP JUMPDEST PUSH1 0x0 PUSH1 0x1 PUSH1 0x0 CALLER PUSH20 0xFFFFFFFFFFFFFFFFFFFFFFFFFFFFFFFFFFFFFFFF AND PUSH20 0xFFFFFFFFFFFFFFFFFFFFFFFFFFFFFFFFFFFFFFFF AND DUP2 MSTORE PUSH1 0x20 ADD SWAP1 DUP2 MSTORE PUSH1 0x20 ADD PUSH1 0x0 KECCAK256 SWAP1 POP PUSH1 0x0 JUMPDEST DUP2 DUP1 SLOAD SWAP1 POP DUP2 LT ISZERO PUSH2 0x239 JUMPI DUP4 DUP3 DUP3 DUP2 SLOAD DUP2 LT PUSH2 0x1C2 JUMPI PUSH2 0x1C1 PUSH2 0x1431 JUMP JUMPDEST JUMPDEST SWAP1 PUSH1 0x0 MSTORE PUSH1 0x20 PUSH1 0x0 KECCAK256 SWAP1 PUSH1 0x5 MUL ADD PUSH1 0x0 ADD SLOAD SUB PUSH2 0x22C JUMPI DUP3 DUP3 DUP3 DUP2 SLOAD DUP2 LT PUSH2 0x1ED JUMPI PUSH2 0x1EC PUSH2 0x1431 JUMP JUMPDEST JUMPDEST SWAP1 PUSH1 0x0 MSTORE PUSH1 0x20 PUSH1 0x0 KECCAK256 SWAP1 PUSH1 0x5 MUL ADD PUSH1 0x4 ADD PUSH1 0x0 PUSH2 0x100 EXP DUP2 SLOAD DUP2 PUSH1 0xFF MUL NOT AND SWAP1 DUP4 PUSH1 0x2 DUP2 GT ISZERO PUSH2 0x220 JUMPI PUSH2 0x21F PUSH2 0x1017 JUMP JUMPDEST JUMPDEST MUL OR SWAP1 SSTORE POP POP POP PUSH2 0x26C JUMP JUMPDEST DUP1 DUP1 PUSH1 0x1 ADD SWAP2 POP POP PUSH2 0x1A2 JUMP JUMPDEST POP PUSH1 0x40 MLOAD PUSH32 0x5A9E653400000000000000000000000000000000000000000000000000000000 DUP2 MSTORE PUSH1 0x4 ADD PUSH1 0x40 MLOAD DUP1 SWAP2 SUB SWAP1 REVERT JUMPDEST POP POP JUMP JUMPDEST PUSH1 0x0 PUSH1 0x1 PUSH1 0x0 CALLER PUSH20 0xFFFFFFFFFFFFFFFFFFFFFFFFFFFFFFFFFFFFFFFF AND PUSH20 0xFFFFFFFFFFFFFFFFFFFFFFFFFFFFFFFFFFFFFFFF AND DUP2 MSTORE PUSH1 0x20 ADD SWAP1 DUP2 MSTORE PUSH1 0x20 ADD PUSH1 0x0 KECCAK256 SWAP1 POP PUSH1 0x0 JUMPDEST DUP2 DUP1 SLOAD SWAP1 POP DUP2 LT ISZERO PUSH2 0x333 JUMPI DUP4 DUP3 DUP3 DUP2 SLOAD DUP2 LT PUSH2 0x2D6 JUMPI PUSH2 0x2D5 PUSH2 0x1431 JUMP JUMPDEST JUMPDEST SWAP1 PUSH1 0x0 MSTORE PUSH1 0x20 PUSH1 0x0 KECCAK256 SWAP1 PUSH1 0x5 MUL ADD PUSH1 0x0 ADD SLOAD SUB PUSH2 0x326 JUMPI DUP3 DUP3 DUP3 DUP2 SLOAD DUP2 LT PUSH2 0x301 JUMPI PUSH2 0x300 PUSH2 0x1431 JUMP JUMPDEST JUMPDEST SWAP1 PUSH1 0x0 MSTORE PUSH1 0x20 PUSH1 0x0 KECCAK256 SWAP1 PUSH1 0x5 MUL ADD PUSH1 0x1 ADD SWAP1 DUP2 PUSH2 0x31E SWAP2 SWAP1 PUSH2 0x166C JUMP JUMPDEST POP POP POP PUSH2 0x366 JUMP JUMPDEST DUP1 DUP1 PUSH1 0x1 ADD SWAP2 POP POP PUSH2 0x2B6 JUMP JUMPDEST POP PUSH1 0x40 MLOAD PUSH32 0xACA0832A00000000000000000000000000000000000000000000000000000000 DUP2 MSTORE PUSH1 0x4 ADD PUSH1 0x40 MLOAD DUP1 SWAP2 SUB SWAP1 REVERT JUMPDEST POP POP JUMP JUMPDEST PUSH1 0x60 PUSH1 0x1 PUSH1 0x0 CALLER PUSH20 0xFFFFFFFFFFFFFFFFFFFFFFFFFFFFFFFFFFFFFFFF AND PUSH20 0xFFFFFFFFFFFFFFFFFFFFFFFFFFFFFFFFFFFFFFFF AND DUP2 MSTORE PUSH1 0x20 ADD SWAP1 DUP2 MSTORE PUSH1 0x20 ADD PUSH1 0x0 KECCAK256 DUP1 SLOAD DUP1 PUSH1 0x20 MUL PUSH1 0x20 ADD PUSH1 0x40 MLOAD SWAP1 DUP2 ADD PUSH1 0x40 MSTORE DUP1 SWAP3 SWAP2 SWAP1 DUP2 DUP2 MSTORE PUSH1 0x20 ADD PUSH1 0x0 SWAP1 JUMPDEST DUP3 DUP3 LT ISZERO PUSH2 0x570 JUMPI DUP4 DUP3 SWAP1 PUSH1 0x0 MSTORE PUSH1 0x20 PUSH1 0x0 KECCAK256 SWAP1 PUSH1 0x5 MUL ADD PUSH1 0x40 MLOAD DUP1 PUSH1 0xA0 ADD PUSH1 0x40 MSTORE SWAP1 DUP2 PUSH1 0x0 DUP3 ADD SLOAD DUP2 MSTORE PUSH1 0x20 ADD PUSH1 0x1 DUP3 ADD DUP1 SLOAD PUSH2 0x408 SWAP1 PUSH2 0x148F JUMP JUMPDEST DUP1 PUSH1 0x1F ADD PUSH1 0x20 DUP1 SWAP2 DIV MUL PUSH1 0x20 ADD PUSH1 0x40 MLOAD SWAP1 DUP2 ADD PUSH1 0x40 MSTORE DUP1 SWAP3 SWAP2 SWAP1 DUP2 DUP2 MSTORE PUSH1 0x20 ADD DUP3 DUP1 SLOAD PUSH2 0x434 SWAP1 PUSH2 0x148F JUMP JUMPDEST DUP1 ISZERO PUSH2 0x481 JUMPI DUP1 PUSH1 0x1F LT PUSH2 0x456 JUMPI PUSH2 0x100 DUP1 DUP4 SLOAD DIV MUL DUP4 MSTORE SWAP2 PUSH1 0x20 ADD SWAP2 PUSH2 0x481 JUMP JUMPDEST DUP3 ADD SWAP2 SWAP1 PUSH1 0x0 MSTORE PUSH1 0x20 PUSH1 0x0 KECCAK256 SWAP1 JUMPDEST DUP2 SLOAD DUP2 MSTORE SWAP1 PUSH1 0x1 ADD SWAP1 PUSH1 0x20 ADD DUP1 DUP4 GT PUSH2 0x464 JUMPI DUP3 SWAP1 SUB PUSH1 0x1F AND DUP3 ADD SWAP2 JUMPDEST POP POP POP POP POP DUP2 MSTORE PUSH1 0x20 ADD PUSH1 0x2 DUP3 ADD DUP1 SLOAD PUSH2 0x49A SWAP1 PUSH2 0x148F JUMP JUMPDEST DUP1 PUSH1 0x1F ADD PUSH1 0x20 DUP1 SWAP2 DIV MUL PUSH1 0x20 ADD PUSH1 0x40 MLOAD SWAP1 DUP2 ADD PUSH1 0x40 MSTORE DUP1 SWAP3 SWAP2 SWAP1 DUP2 DUP2 MSTORE PUSH1 0x20 ADD DUP3 DUP1 SLOAD PUSH2 0x4C6 SWAP1 PUSH2 0x148F JUMP JUMPDEST DUP1 ISZERO PUSH2 0x513 JUMPI DUP1 PUSH1 0x1F LT PUSH2 0x4E8 JUMPI PUSH2 0x100 DUP1 DUP4 SLOAD DIV MUL DUP4 MSTORE SWAP2 PUSH1 0x20 ADD SWAP2 PUSH2 0x513 JUMP JUMPDEST DUP3 ADD SWAP2 SWAP1 PUSH1 0x0 MSTORE PUSH1 0x20 PUSH1 0x0 KECCAK256 SWAP1 JUMPDEST DUP2 SLOAD DUP2 MSTORE SWAP1 PUSH1 0x1 ADD SWAP1 PUSH1 0x20 ADD DUP1 DUP4 GT PUSH2 0x4F6 JUMPI DUP3 SWAP1 SUB PUSH1 0x1F AND DUP3 ADD SWAP2 JUMPDEST POP POP POP POP POP DUP2 MSTORE PUSH1 0x20 ADD PUSH1 0x3 DUP3 ADD SLOAD DUP2 MSTORE PUSH1 0x20 ADD PUSH1 0x4 DUP3 ADD PUSH1 0x0 SWAP1 SLOAD SWAP1 PUSH2 0x100 EXP SWAP1 DIV PUSH1 0xFF AND PUSH1 0x2 DUP2 GT ISZERO PUSH2 0x54B JUMPI PUSH2 0x54A PUSH2 0x1017 JUMP JUMPDEST JUMPDEST PUSH1 0x2 DUP2 GT ISZERO PUSH2 0x55D JUMPI PUSH2 0x55C PUSH2 0x1017 JUMP JUMPDEST JUMPDEST DUP2 MSTORE POP POP DUP2 MSTORE PUSH1 0x20 ADD SWAP1 PUSH1 0x1 ADD SWAP1 PUSH2 0x3CB JUMP JUMPDEST POP POP POP POP SWAP1 POP SWAP1 JUMP JUMPDEST PUSH1 0x0 PUSH1 0x1 PUSH1 0x0 CALLER PUSH20 0xFFFFFFFFFFFFFFFFFFFFFFFFFFFFFFFFFFFFFFFF AND PUSH20 0xFFFFFFFFFFFFFFFFFFFFFFFFFFFFFFFFFFFFFFFF AND DUP2 MSTORE PUSH1 0x20 ADD SWAP1 DUP2 MSTORE PUSH1 0x20 ADD PUSH1 0x0 KECCAK256 SWAP1 POP PUSH1 0x0 JUMPDEST DUP2 DUP1 SLOAD SWAP1 POP DUP2 LT ISZERO PUSH2 0x748 JUMPI DUP3 DUP3 DUP3 DUP2 SLOAD DUP2 LT PUSH2 0x5DF JUMPI PUSH2 0x5DE PUSH2 0x1431 JUMP JUMPDEST JUMPDEST SWAP1 PUSH1 0x0 MSTORE PUSH1 0x20 PUSH1 0x0 KECCAK256 SWAP1 PUSH1 0x5 MUL ADD PUSH1 0x0 ADD SLOAD SUB PUSH2 0x73B JUMPI DUP2 PUSH1 0x1 DUP4 DUP1 SLOAD SWAP1 POP PUSH2 0x608 SWAP2 SWAP1 PUSH2 0x176D JUMP JUMPDEST DUP2 SLOAD DUP2 LT PUSH2 0x619 JUMPI PUSH2 0x618 PUSH2 0x1431 JUMP JUMPDEST JUMPDEST SWAP1 PUSH1 0x0 MSTORE PUSH1 0x20 PUSH1 0x0 KECCAK256 SWAP1 PUSH1 0x5 MUL ADD DUP3 DUP3 DUP2 SLOAD DUP2 LT PUSH2 0x63A JUMPI PUSH2 0x639 PUSH2 0x1431 JUMP JUMPDEST JUMPDEST SWAP1 PUSH1 0x0 MSTORE PUSH1 0x20 PUSH1 0x0 KECCAK256 SWAP1 PUSH1 0x5 MUL ADD PUSH1 0x0 DUP3 ADD SLOAD DUP2 PUSH1 0x0 ADD SSTORE PUSH1 0x1 DUP3 ADD DUP2 PUSH1 0x1 ADD SWAP1 DUP2 PUSH2 0x666 SWAP2 SWAP1 PUSH2 0x17B7 JUMP JUMPDEST POP PUSH1 0x2 DUP3 ADD DUP2 PUSH1 0x2 ADD SWAP1 DUP2 PUSH2 0x67B SWAP2 SWAP1 PUSH2 0x17B7 JUMP JUMPDEST POP PUSH1 0x3 DUP3 ADD SLOAD DUP2 PUSH1 0x3 ADD SSTORE PUSH1 0x4 DUP3 ADD PUSH1 0x0 SWAP1 SLOAD SWAP1 PUSH2 0x100 EXP SWAP1 DIV PUSH1 0xFF AND DUP2 PUSH1 0x4 ADD PUSH1 0x0 PUSH2 0x100 EXP DUP2 SLOAD DUP2 PUSH1 0xFF MUL NOT AND SWAP1 DUP4 PUSH1 0x2 DUP2 GT ISZERO PUSH2 0x6BE JUMPI PUSH2 0x6BD PUSH2 0x1017 JUMP JUMPDEST JUMPDEST MUL OR SWAP1 SSTORE POP SWAP1 POP POP DUP2 DUP1 SLOAD DUP1 PUSH2 0x6D7 JUMPI PUSH2 0x6D6 PUSH2 0x189F JUMP JUMPDEST JUMPDEST PUSH1 0x1 SWAP1 SUB DUP2 DUP2 SWAP1 PUSH1 0x0 MSTORE PUSH1 0x20 PUSH1 0x0 KECCAK256 SWAP1 PUSH1 0x5 MUL ADD PUSH1 0x0 DUP1 DUP3 ADD PUSH1 0x0 SWAP1 SSTORE PUSH1 0x1 DUP3 ADD PUSH1 0x0 PUSH2 0x704 SWAP2 SWAP1 PUSH2 0xC6E JUMP JUMPDEST PUSH1 0x2 DUP3 ADD PUSH1 0x0 PUSH2 0x714 SWAP2 SWAP1 PUSH2 0xC6E JUMP JUMPDEST PUSH1 0x3 DUP3 ADD PUSH1 0x0 SWAP1 SSTORE PUSH1 0x4 DUP3 ADD PUSH1 0x0 PUSH2 0x100 EXP DUP2 SLOAD SWAP1 PUSH1 0xFF MUL NOT AND SWAP1 SSTORE POP POP SWAP1 SSTORE POP POP PUSH2 0x77B JUMP JUMPDEST DUP1 DUP1 PUSH1 0x1 ADD SWAP2 POP POP PUSH2 0x5BF JUMP JUMPDEST POP PUSH1 0x40 MLOAD PUSH32 0xACA0832A00000000000000000000000000000000000000000000000000000000 DUP2 MSTORE PUSH1 0x4 ADD PUSH1 0x40 MLOAD DUP1 SWAP2 SUB SWAP1 REVERT JUMPDEST POP JUMP JUMPDEST PUSH2 0x786 PUSH2 0xCAE JUMP JUMPDEST PUSH1 0x0 PUSH1 0x1 PUSH1 0x0 CALLER PUSH20 0xFFFFFFFFFFFFFFFFFFFFFFFFFFFFFFFFFFFFFFFF AND PUSH20 0xFFFFFFFFFFFFFFFFFFFFFFFFFFFFFFFFFFFFFFFF AND DUP2 MSTORE PUSH1 0x20 ADD SWAP1 DUP2 MSTORE PUSH1 0x20 ADD PUSH1 0x0 KECCAK256 SWAP1 POP PUSH1 0x0 JUMPDEST DUP2 DUP1 SLOAD SWAP1 POP DUP2 LT ISZERO PUSH2 0x9B8 JUMPI DUP4 DUP3 DUP3 DUP2 SLOAD DUP2 LT PUSH2 0x7EC JUMPI PUSH2 0x7EB PUSH2 0x1431 JUMP JUMPDEST JUMPDEST SWAP1 PUSH1 0x0 MSTORE PUSH1 0x20 PUSH1 0x0 KECCAK256 SWAP1 PUSH1 0x5 MUL ADD PUSH1 0x0 ADD SLOAD SUB PUSH2 0x9AB JUMPI DUP2 DUP2 DUP2 SLOAD DUP2 LT PUSH2 0x816 JUMPI PUSH2 0x815 PUSH2 0x1431 JUMP JUMPDEST JUMPDEST SWAP1 PUSH1 0x0 MSTORE PUSH1 0x20 PUSH1 0x0 KECCAK256 SWAP1 PUSH1 0x5 MUL ADD PUSH1 0x40 MLOAD DUP1 PUSH1 0xA0 ADD PUSH1 0x40 MSTORE SWAP1 DUP2 PUSH1 0x0 DUP3 ADD SLOAD DUP2 MSTORE PUSH1 0x20 ADD PUSH1 0x1 DUP3 ADD DUP1 SLOAD PUSH2 0x849 SWAP1 PUSH2 0x148F JUMP JUMPDEST DUP1 PUSH1 0x1F ADD PUSH1 0x20 DUP1 SWAP2 DIV MUL PUSH1 0x20 ADD PUSH1 0x40 MLOAD SWAP1 DUP2 ADD PUSH1 0x40 MSTORE DUP1 SWAP3 SWAP2 SWAP1 DUP2 DUP2 MSTORE PUSH1 0x20 ADD DUP3 DUP1 SLOAD PUSH2 0x875 SWAP1 PUSH2 0x148F JUMP JUMPDEST DUP1 ISZERO PUSH2 0x8C2 JUMPI DUP1 PUSH1 0x1F LT PUSH2 0x897 JUMPI PUSH2 0x100 DUP1 DUP4 SLOAD DIV MUL DUP4 MSTORE SWAP2 PUSH1 0x20 ADD SWAP2 PUSH2 0x8C2 JUMP JUMPDEST DUP3 ADD SWAP2 SWAP1 PUSH1 0x0 MSTORE PUSH1 0x20 PUSH1 0x0 KECCAK256 SWAP1 JUMPDEST DUP2 SLOAD DUP2 MSTORE SWAP1 PUSH1 0x1 ADD SWAP1 PUSH1 0x20 ADD DUP1 DUP4 GT PUSH2 0x8A5 JUMPI DUP3 SWAP1 SUB PUSH1 0x1F AND DUP3 ADD SWAP2 JUMPDEST POP POP POP POP POP DUP2 MSTORE PUSH1 0x20 ADD PUSH1 0x2 DUP3 ADD DUP1 SLOAD PUSH2 0x8DB SWAP1 PUSH2 0x148F JUMP JUMPDEST DUP1 PUSH1 0x1F ADD PUSH1 0x20 DUP1 SWAP2 DIV MUL PUSH1 0x20 ADD PUSH1 0x40 MLOAD SWAP1 DUP2 ADD PUSH1 0x40 MSTORE DUP1 SWAP3 SWAP2 SWAP1 DUP2 DUP2 MSTORE PUSH1 0x20 ADD DUP3 DUP1 SLOAD PUSH2 0x907 SWAP1 PUSH2 0x148F JUMP JUMPDEST DUP1 ISZERO PUSH2 0x954 JUMPI DUP1 PUSH1 0x1F LT PUSH2 0x929 JUMPI PUSH2 0x100 DUP1 DUP4 SLOAD DIV MUL DUP4 MSTORE SWAP2 PUSH1 0x20 ADD SWAP2 PUSH2 0x954 JUMP JUMPDEST DUP3 ADD SWAP2 SWAP1 PUSH1 0x0 MSTORE PUSH1 0x20 PUSH1 0x0 KECCAK256 SWAP1 JUMPDEST DUP2 SLOAD DUP2 MSTORE SWAP1 PUSH1 0x1 ADD SWAP1 PUSH1 0x20 ADD DUP1 DUP4 GT PUSH2 0x937 JUMPI DUP3 SWAP1 SUB PUSH1 0x1F AND DUP3 ADD SWAP2 JUMPDEST POP POP POP POP POP DUP2 MSTORE PUSH1 0x20 ADD PUSH1 0x3 DUP3 ADD SLOAD DUP2 MSTORE PUSH1 0x20 ADD PUSH1 0x4 DUP3 ADD PUSH1 0x0 SWAP1 SLOAD SWAP1 PUSH2 0x100 EXP SWAP1 DIV PUSH1 0xFF AND PUSH1 0x2 DUP2 GT ISZERO PUSH2 0x98C JUMPI PUSH2 0x98B PUSH2 0x1017 JUMP JUMPDEST JUMPDEST PUSH1 0x2 DUP2 GT ISZERO PUSH2 0x99E JUMPI PUSH2 0x99D PUSH2 0x1017 JUMP JUMPDEST JUMPDEST DUP2 MSTORE POP POP SWAP3 POP POP POP PUSH2 0x9EB JUMP JUMPDEST DUP1 DUP1 PUSH1 0x1 ADD SWAP2 POP POP PUSH2 0x7CC JUMP JUMPDEST POP PUSH1 0x40 MLOAD PUSH32 0xACA0832A00000000000000000000000000000000000000000000000000000000 DUP2 MSTORE PUSH1 0x4 ADD PUSH1 0x40 MLOAD DUP1 SWAP2 SUB SWAP1 REVERT JUMPDEST SWAP2 SWAP1 POP JUMP JUMPDEST PUSH1 0x1 PUSH1 0x0 DUP1 DUP3 DUP3 SLOAD PUSH2 0xA02 SWAP2 SWAP1 PUSH2 0x18CE JUMP JUMPDEST SWAP3 POP POP DUP2 SWAP1 SSTORE POP PUSH1 0x0 PUSH1 0x40 MLOAD DUP1 PUSH1 0xA0 ADD PUSH1 0x40 MSTORE DUP1 PUSH1 0x0 SLOAD DUP2 MSTORE PUSH1 0x20 ADD DUP6 DUP2 MSTORE PUSH1 0x20 ADD DUP5 DUP2 MSTORE PUSH1 0x20 ADD DUP4 DUP2 MSTORE PUSH1 0x20 ADD PUSH1 0x0 PUSH1 0x2 DUP2 GT ISZERO PUSH2 0xA44 JUMPI PUSH2 0xA43 PUSH2 0x1017 JUMP JUMPDEST JUMPDEST DUP2 MSTORE POP SWAP1 POP PUSH1 0x1 PUSH1 0x0 CALLER PUSH20 0xFFFFFFFFFFFFFFFFFFFFFFFFFFFFFFFFFFFFFFFF AND PUSH20 0xFFFFFFFFFFFFFFFFFFFFFFFFFFFFFFFFFFFFFFFF AND DUP2 MSTORE PUSH1 0x20 ADD SWAP1 DUP2 MSTORE PUSH1 0x20 ADD PUSH1 0x0 KECCAK256 DUP2 SWAP1 DUP1 PUSH1 0x1 DUP2 SLOAD ADD DUP1 DUP3 SSTORE DUP1 SWAP2 POP POP PUSH1 0x1 SWAP1 SUB SWAP1 PUSH1 0x0 MSTORE PUSH1 0x20 PUSH1 0x0 KECCAK256 SWAP1 PUSH1 0x5 MUL ADD PUSH1 0x0 SWAP1 SWAP2 SWAP1 SWAP2 SWAP1 SWAP2 POP PUSH1 0x0 DUP3 ADD MLOAD DUP2 PUSH1 0x0 ADD SSTORE PUSH1 0x20 DUP3 ADD MLOAD DUP2 PUSH1 0x1 ADD SWAP1 DUP2 PUSH2 0xAD1 SWAP2 SWAP1 PUSH2 0x166C JUMP JUMPDEST POP PUSH1 0x40 DUP3 ADD MLOAD DUP2 PUSH1 0x2 ADD SWAP1 DUP2 PUSH2 0xAE7 SWAP2 SWAP1 PUSH2 0x166C JUMP JUMPDEST POP PUSH1 0x60 DUP3 ADD MLOAD DUP2 PUSH1 0x3 ADD SSTORE PUSH1 0x80 DUP3 ADD MLOAD DUP2 PUSH1 0x4 ADD PUSH1 0x0 PUSH2 0x100 EXP DUP2 SLOAD DUP2 PUSH1 0xFF MUL NOT AND SWAP1 DUP4 PUSH1 0x2 DUP2 GT ISZERO PUSH2 0xB1D JUMPI PUSH2 0xB1C PUSH2 0x1017 JUMP JUMPDEST JUMPDEST MUL OR SWAP1 SSTORE POP POP POP POP POP POP POP JUMP JUMPDEST PUSH1 0x1 PUSH1 0x0 DUP1 DUP3 DUP3 SLOAD PUSH2 0xB3C SWAP2 SWAP1 PUSH2 0x18CE JUMP JUMPDEST SWAP3 POP POP DUP2 SWAP1 SSTORE POP PUSH1 0x0 PUSH1 0x40 MLOAD DUP1 PUSH1 0xA0 ADD PUSH1 0x40 MSTORE DUP1 PUSH1 0x0 SLOAD DUP2 MSTORE PUSH1 0x20 ADD DUP4 PUSH1 0x20 ADD MLOAD DUP2 MSTORE PUSH1 0x20 ADD DUP4 PUSH1 0x40 ADD MLOAD DUP2 MSTORE PUSH1 0x20 ADD DUP4 PUSH1 0x60 ADD MLOAD DUP2 MSTORE PUSH1 0x20 ADD PUSH1 0x0 PUSH1 0x2 DUP2 GT ISZERO PUSH2 0xB8A JUMPI PUSH2 0xB89 PUSH2 0x1017 JUMP JUMPDEST JUMPDEST DUP2 MSTORE POP SWAP1 POP PUSH1 0x1 PUSH1 0x0 CALLER PUSH20 0xFFFFFFFFFFFFFFFFFFFFFFFFFFFFFFFFFFFFFFFF AND PUSH20 0xFFFFFFFFFFFFFFFFFFFFFFFFFFFFFFFFFFFFFFFF AND DUP2 MSTORE PUSH1 0x20 ADD SWAP1 DUP2 MSTORE PUSH1 0x20 ADD PUSH1 0x0 KECCAK256 DUP2 SWAP1 DUP1 PUSH1 0x1 DUP2 SLOAD ADD DUP1 DUP3 SSTORE DUP1 SWAP2 POP POP PUSH1 0x1 SWAP1 SUB SWAP1 PUSH1 0x0 MSTORE PUSH1 0x20 PUSH1 0x0 KECCAK256 SWAP1 PUSH1 0x5 MUL ADD PUSH1 0x0 SWAP1 SWAP2 SWAP1 SWAP2 SWAP1 SWAP2 POP PUSH1 0x0 DUP3 ADD MLOAD DUP2 PUSH1 0x0 ADD SSTORE PUSH1 0x20 DUP3 ADD MLOAD DUP2 PUSH1 0x1 ADD SWAP1 DUP2 PUSH2 0xC17 SWAP2 SWAP1 PUSH2 0x166C JUMP JUMPDEST POP PUSH1 0x40 DUP3 ADD MLOAD DUP2 PUSH1 0x2 ADD SWAP1 DUP2 PUSH2 0xC2D SWAP2 SWAP1 PUSH2 0x166C JUMP JUMPDEST POP PUSH1 0x60 DUP3 ADD MLOAD DUP2 PUSH1 0x3 ADD SSTORE PUSH1 0x80 DUP3 ADD MLOAD DUP2 PUSH1 0x4 ADD PUSH1 0x0 PUSH2 0x100 EXP DUP2 SLOAD DUP2 PUSH1 0xFF MUL NOT AND SWAP1 DUP4 PUSH1 0x2 DUP2 GT ISZERO PUSH2 0xC63 JUMPI PUSH2 0xC62 PUSH2 0x1017 JUMP JUMPDEST JUMPDEST MUL OR SWAP1 SSTORE POP POP POP POP POP JUMP JUMPDEST POP DUP1 SLOAD PUSH2 0xC7A SWAP1 PUSH2 0x148F JUMP JUMPDEST PUSH1 0x0 DUP3 SSTORE DUP1 PUSH1 0x1F LT PUSH2 0xC8C JUMPI POP PUSH2 0xCAB JUMP JUMPDEST PUSH1 0x1F ADD PUSH1 0x20 SWAP1 DIV SWAP1 PUSH1 0x0 MSTORE PUSH1 0x20 PUSH1 0x0 KECCAK256 SWAP1 DUP2 ADD SWAP1 PUSH2 0xCAA SWAP2 SWAP1 PUSH2 0xCEF JUMP JUMPDEST JUMPDEST POP JUMP JUMPDEST PUSH1 0x40 MLOAD DUP1 PUSH1 0xA0 ADD PUSH1 0x40 MSTORE DUP1 PUSH1 0x0 DUP2 MSTORE PUSH1 0x20 ADD PUSH1 0x60 DUP2 MSTORE PUSH1 0x20 ADD PUSH1 0x60 DUP2 MSTORE PUSH1 0x20 ADD PUSH1 0x0 DUP2 MSTORE PUSH1 0x20 ADD PUSH1 0x0 PUSH1 0x2 DUP2 GT ISZERO PUSH2 0xCE9 JUMPI PUSH2 0xCE8 PUSH2 0x1017 JUMP JUMPDEST JUMPDEST DUP2 MSTORE POP SWAP1 JUMP JUMPDEST JUMPDEST DUP1 DUP3 GT ISZERO PUSH2 0xD08 JUMPI PUSH1 0x0 DUP2 PUSH1 0x0 SWAP1 SSTORE POP PUSH1 0x1 ADD PUSH2 0xCF0 JUMP JUMPDEST POP SWAP1 JUMP JUMPDEST PUSH1 0x0 PUSH1 0x40 MLOAD SWAP1 POP SWAP1 JUMP JUMPDEST PUSH1 0x0 DUP1 REVERT JUMPDEST PUSH1 0x0 DUP1 REVERT JUMPDEST PUSH1 0x0 DUP2 SWAP1 POP SWAP2 SWAP1 POP JUMP JUMPDEST PUSH2 0xD33 DUP2 PUSH2 0xD20 JUMP JUMPDEST DUP2 EQ PUSH2 0xD3E JUMPI PUSH1 0x0 DUP1 REVERT JUMPDEST POP JUMP JUMPDEST PUSH1 0x0 DUP2 CALLDATALOAD SWAP1 POP PUSH2 0xD50 DUP2 PUSH2 0xD2A JUMP JUMPDEST SWAP3 SWAP2 POP POP JUMP JUMPDEST PUSH1 0x3 DUP2 LT PUSH2 0xD63 JUMPI PUSH1 0x0 DUP1 REVERT JUMPDEST POP JUMP JUMPDEST PUSH1 0x0 DUP2 CALLDATALOAD SWAP1 POP PUSH2 0xD75 DUP2 PUSH2 0xD56 JUMP JUMPDEST SWAP3 SWAP2 POP POP JUMP JUMPDEST PUSH1 0x0 DUP1 PUSH1 0x40 DUP4 DUP6 SUB SLT ISZERO PUSH2 0xD92 JUMPI PUSH2 0xD91 PUSH2 0xD16 JUMP JUMPDEST JUMPDEST PUSH1 0x0 PUSH2 0xDA0 DUP6 DUP3 DUP7 ADD PUSH2 0xD41 JUMP JUMPDEST SWAP3 POP POP PUSH1 0x20 PUSH2 0xDB1 DUP6 DUP3 DUP7 ADD PUSH2 0xD66 JUMP JUMPDEST SWAP2 POP POP SWAP3 POP SWAP3 SWAP1 POP JUMP JUMPDEST PUSH1 0x0 DUP1 REVERT JUMPDEST PUSH1 0x0 DUP1 REVERT JUMPDEST PUSH1 0x0 PUSH1 0x1F NOT PUSH1 0x1F DUP4 ADD AND SWAP1 POP SWAP2 SWAP1 POP JUMP JUMPDEST PUSH32 0x4E487B7100000000000000000000000000000000000000000000000000000000 PUSH1 0x0 MSTORE PUSH1 0x41 PUSH1 0x4 MSTORE PUSH1 0x24 PUSH1 0x0 REVERT JUMPDEST PUSH2 0xE0E DUP3 PUSH2 0xDC5 JUMP JUMPDEST DUP2 ADD DUP2 DUP2 LT PUSH8 0xFFFFFFFFFFFFFFFF DUP3 GT OR ISZERO PUSH2 0xE2D JUMPI PUSH2 0xE2C PUSH2 0xDD6 JUMP JUMPDEST JUMPDEST DUP1 PUSH1 0x40 MSTORE POP POP POP JUMP JUMPDEST PUSH1 0x0 PUSH2 0xE40 PUSH2 0xD0C JUMP JUMPDEST SWAP1 POP PUSH2 0xE4C DUP3 DUP3 PUSH2 0xE05 JUMP JUMPDEST SWAP2 SWAP1 POP JUMP JUMPDEST PUSH1 0x0 PUSH8 0xFFFFFFFFFFFFFFFF DUP3 GT ISZERO PUSH2 0xE6C JUMPI PUSH2 0xE6B PUSH2 0xDD6 JUMP JUMPDEST JUMPDEST PUSH2 0xE75 DUP3 PUSH2 0xDC5 JUMP JUMPDEST SWAP1 POP PUSH1 0x20 DUP2 ADD SWAP1 POP SWAP2 SWAP1 POP JUMP JUMPDEST DUP3 DUP2 DUP4 CALLDATACOPY PUSH1 0x0 DUP4 DUP4 ADD MSTORE POP POP POP JUMP JUMPDEST PUSH1 0x0 PUSH2 0xEA4 PUSH2 0xE9F DUP5 PUSH2 0xE51 JUMP JUMPDEST PUSH2 0xE36 JUMP JUMPDEST SWAP1 POP DUP3 DUP2 MSTORE PUSH1 0x20 DUP2 ADD DUP5 DUP5 DUP5 ADD GT ISZERO PUSH2 0xEC0 JUMPI PUSH2 0xEBF PUSH2 0xDC0 JUMP JUMPDEST JUMPDEST PUSH2 0xECB DUP5 DUP3 DUP6 PUSH2 0xE82 JUMP JUMPDEST POP SWAP4 SWAP3 POP POP POP JUMP JUMPDEST PUSH1 0x0 DUP3 PUSH1 0x1F DUP4 ADD SLT PUSH2 0xEE8 JUMPI PUSH2 0xEE7 PUSH2 0xDBB JUMP JUMPDEST JUMPDEST DUP2 CALLDATALOAD PUSH2 0xEF8 DUP5 DUP3 PUSH1 0x20 DUP7 ADD PUSH2 0xE91 JUMP JUMPDEST SWAP2 POP POP SWAP3 SWAP2 POP POP JUMP JUMPDEST PUSH1 0x0 DUP1 PUSH1 0x40 DUP4 DUP6 SUB SLT ISZERO PUSH2 0xF18 JUMPI PUSH2 0xF17 PUSH2 0xD16 JUMP JUMPDEST JUMPDEST PUSH1 0x0 PUSH2 0xF26 DUP6 DUP3 DUP7 ADD PUSH2 0xD41 JUMP JUMPDEST SWAP3 POP POP PUSH1 0x20 DUP4 ADD CALLDATALOAD PUSH8 0xFFFFFFFFFFFFFFFF DUP2 GT ISZERO PUSH2 0xF47 JUMPI PUSH2 0xF46 PUSH2 0xD1B JUMP JUMPDEST JUMPDEST PUSH2 0xF53 DUP6 DUP3 DUP7 ADD PUSH2 0xED3 JUMP JUMPDEST SWAP2 POP POP SWAP3 POP SWAP3 SWAP1 POP JUMP JUMPDEST PUSH1 0x0 DUP2 MLOAD SWAP1 POP SWAP2 SWAP1 POP JUMP JUMPDEST PUSH1 0x0 DUP3 DUP3 MSTORE PUSH1 0x20 DUP3 ADD SWAP1 POP SWAP3 SWAP2 POP POP JUMP JUMPDEST PUSH1 0x0 DUP2 SWAP1 POP PUSH1 0x20 DUP3 ADD SWAP1 POP SWAP2 SWAP1 POP JUMP JUMPDEST PUSH2 0xF92 DUP2 PUSH2 0xD20 JUMP JUMPDEST DUP3 MSTORE POP POP JUMP JUMPDEST PUSH1 0x0 DUP2 MLOAD SWAP1 POP SWAP2 SWAP1 POP JUMP JUMPDEST PUSH1 0x0 DUP3 DUP3 MSTORE PUSH1 0x20 DUP3 ADD SWAP1 POP SWAP3 SWAP2 POP POP JUMP JUMPDEST PUSH1 0x0 JUMPDEST DUP4 DUP2 LT ISZERO PUSH2 0xFD2 JUMPI DUP1 DUP3 ADD MLOAD DUP2 DUP5 ADD MSTORE PUSH1 0x20 DUP2 ADD SWAP1 POP PUSH2 0xFB7 JUMP JUMPDEST PUSH1 0x0 DUP5 DUP5 ADD MSTORE POP POP POP POP JUMP JUMPDEST PUSH1 0x0 PUSH2 0xFE9 DUP3 PUSH2 0xF98 JUMP JUMPDEST PUSH2 0xFF3 DUP2 DUP6 PUSH2 0xFA3 JUMP JUMPDEST SWAP4 POP PUSH2 0x1003 DUP2 DUP6 PUSH1 0x20 DUP7 ADD PUSH2 0xFB4 JUMP JUMPDEST PUSH2 0x100C DUP2 PUSH2 0xDC5 JUMP JUMPDEST DUP5 ADD SWAP2 POP POP SWAP3 SWAP2 POP POP JUMP JUMPDEST PUSH32 0x4E487B7100000000000000000000000000000000000000000000000000000000 PUSH1 0x0 MSTORE PUSH1 0x21 PUSH1 0x4 MSTORE PUSH1 0x24 PUSH1 0x0 REVERT JUMPDEST PUSH1 0x3 DUP2 LT PUSH2 0x1057 JUMPI PUSH2 0x1056 PUSH2 0x1017 JUMP JUMPDEST JUMPDEST POP JUMP JUMPDEST PUSH1 0x0 DUP2 SWAP1 POP PUSH2 0x1068 DUP3 PUSH2 0x1046 JUMP JUMPDEST SWAP2 SWAP1 POP JUMP JUMPDEST PUSH1 0x0 PUSH2 0x1078 DUP3 PUSH2 0x105A JUMP JUMPDEST SWAP1 POP SWAP2 SWAP1 POP JUMP JUMPDEST PUSH2 0x1088 DUP2 PUSH2 0x106D JUMP JUMPDEST DUP3 MSTORE POP POP JUMP JUMPDEST PUSH1 0x0 PUSH1 0xA0 DUP4 ADD PUSH1 0x0 DUP4 ADD MLOAD PUSH2 0x10A6 PUSH1 0x0 DUP7 ADD DUP3 PUSH2 0xF89 JUMP JUMPDEST POP PUSH1 0x20 DUP4 ADD MLOAD DUP5 DUP3 SUB PUSH1 0x20 DUP7 ADD MSTORE PUSH2 0x10BE DUP3 DUP3 PUSH2 0xFDE JUMP JUMPDEST SWAP2 POP POP PUSH1 0x40 DUP4 ADD MLOAD DUP5 DUP3 SUB PUSH1 0x40 DUP7 ADD MSTORE PUSH2 0x10D8 DUP3 DUP3 PUSH2 0xFDE JUMP JUMPDEST SWAP2 POP POP PUSH1 0x60 DUP4 ADD MLOAD PUSH2 0x10ED PUSH1 0x60 DUP7 ADD DUP3 PUSH2 0xF89 JUMP JUMPDEST POP PUSH1 0x80 DUP4 ADD MLOAD PUSH2 0x1100 PUSH1 0x80 DUP7 ADD DUP3 PUSH2 0x107F JUMP JUMPDEST POP DUP1 SWAP2 POP POP SWAP3 SWAP2 POP POP JUMP JUMPDEST PUSH1 0x0 PUSH2 0x1117 DUP4 DUP4 PUSH2 0x108E JUMP JUMPDEST SWAP1 POP SWAP3 SWAP2 POP POP JUMP JUMPDEST PUSH1 0x0 PUSH1 0x20 DUP3 ADD SWAP1 POP SWAP2 SWAP1 POP JUMP JUMPDEST PUSH1 0x0 PUSH2 0x1137 DUP3 PUSH2 0xF5D JUMP JUMPDEST PUSH2 0x1141 DUP2 DUP6 PUSH2 0xF68 JUMP JUMPDEST SWAP4 POP DUP4 PUSH1 0x20 DUP3 MUL DUP6 ADD PUSH2 0x1153 DUP6 PUSH2 0xF79 JUMP JUMPDEST DUP1 PUSH1 0x0 JUMPDEST DUP6 DUP2 LT ISZERO PUSH2 0x118F JUMPI DUP5 DUP5 SUB DUP10 MSTORE DUP2 MLOAD PUSH2 0x1170 DUP6 DUP3 PUSH2 0x110B JUMP JUMPDEST SWAP5 POP PUSH2 0x117B DUP4 PUSH2 0x111F JUMP JUMPDEST SWAP3 POP PUSH1 0x20 DUP11 ADD SWAP10 POP POP PUSH1 0x1 DUP2 ADD SWAP1 POP PUSH2 0x1157 JUMP JUMPDEST POP DUP3 SWAP8 POP DUP8 SWAP6 POP POP POP POP POP POP SWAP3 SWAP2 POP POP JUMP JUMPDEST PUSH1 0x0 PUSH1 0x20 DUP3 ADD SWAP1 POP DUP2 DUP2 SUB PUSH1 0x0 DUP4 ADD MSTORE PUSH2 0x11BB DUP2 DUP5 PUSH2 0x112C JUMP JUMPDEST SWAP1 POP SWAP3 SWAP2 POP POP JUMP JUMPDEST PUSH1 0x0 PUSH1 0x20 DUP3 DUP5 SUB SLT ISZERO PUSH2 0x11D9 JUMPI PUSH2 0x11D8 PUSH2 0xD16 JUMP JUMPDEST JUMPDEST PUSH1 0x0 PUSH2 0x11E7 DUP5 DUP3 DUP6 ADD PUSH2 0xD41 JUMP JUMPDEST SWAP2 POP POP SWAP3 SWAP2 POP POP JUMP JUMPDEST PUSH1 0x0 PUSH1 0xA0 DUP4 ADD PUSH1 0x0 DUP4 ADD MLOAD PUSH2 0x1208 PUSH1 0x0 DUP7 ADD DUP3 PUSH2 0xF89 JUMP JUMPDEST POP PUSH1 0x20 DUP4 ADD MLOAD DUP5 DUP3 SUB PUSH1 0x20 DUP7 ADD MSTORE PUSH2 0x1220 DUP3 DUP3 PUSH2 0xFDE JUMP JUMPDEST SWAP2 POP POP PUSH1 0x40 DUP4 ADD MLOAD DUP5 DUP3 SUB PUSH1 0x40 DUP7 ADD MSTORE PUSH2 0x123A DUP3 DUP3 PUSH2 0xFDE JUMP JUMPDEST SWAP2 POP POP PUSH1 0x60 DUP4 ADD MLOAD PUSH2 0x124F PUSH1 0x60 DUP7 ADD DUP3 PUSH2 0xF89 JUMP JUMPDEST POP PUSH1 0x80 DUP4 ADD MLOAD PUSH2 0x1262 PUSH1 0x80 DUP7 ADD DUP3 PUSH2 0x107F JUMP JUMPDEST POP DUP1 SWAP2 POP POP SWAP3 SWAP2 POP POP JUMP JUMPDEST PUSH1 0x0 PUSH1 0x20 DUP3 ADD SWAP1 POP DUP2 DUP2 SUB PUSH1 0x0 DUP4 ADD MSTORE PUSH2 0x1287 DUP2 DUP5 PUSH2 0x11F0 JUMP JUMPDEST SWAP1 POP SWAP3 SWAP2 POP POP JUMP JUMPDEST PUSH1 0x0 DUP1 PUSH1 0x0 PUSH1 0x60 DUP5 DUP7 SUB SLT ISZERO PUSH2 0x12A8 JUMPI PUSH2 0x12A7 PUSH2 0xD16 JUMP JUMPDEST JUMPDEST PUSH1 0x0 DUP5 ADD CALLDATALOAD PUSH8 0xFFFFFFFFFFFFFFFF DUP2 GT ISZERO PUSH2 0x12C6 JUMPI PUSH2 0x12C5 PUSH2 0xD1B JUMP JUMPDEST JUMPDEST PUSH2 0x12D2 DUP7 DUP3 DUP8 ADD PUSH2 0xED3 JUMP JUMPDEST SWAP4 POP POP PUSH1 0x20 DUP5 ADD CALLDATALOAD PUSH8 0xFFFFFFFFFFFFFFFF DUP2 GT ISZERO PUSH2 0x12F3 JUMPI PUSH2 0x12F2 PUSH2 0xD1B JUMP JUMPDEST JUMPDEST PUSH2 0x12FF DUP7 DUP3 DUP8 ADD PUSH2 0xED3 JUMP JUMPDEST SWAP3 POP POP PUSH1 0x40 PUSH2 0x1310 DUP7 DUP3 DUP8 ADD PUSH2 0xD41 JUMP JUMPDEST SWAP2 POP POP SWAP3 POP SWAP3 POP SWAP3 JUMP JUMPDEST PUSH1 0x0 DUP1 REVERT JUMPDEST PUSH1 0x0 DUP1 REVERT JUMPDEST PUSH1 0x0 PUSH1 0xA0 DUP3 DUP5 SUB SLT ISZERO PUSH2 0x133A JUMPI PUSH2 0x1339 PUSH2 0x131A JUMP JUMPDEST JUMPDEST PUSH2 0x1344 PUSH1 0xA0 PUSH2 0xE36 JUMP JUMPDEST SWAP1 POP PUSH1 0x0 PUSH2 0x1354 DUP5 DUP3 DUP6 ADD PUSH2 0xD41 JUMP JUMPDEST PUSH1 0x0 DUP4 ADD MSTORE POP PUSH1 0x20 DUP3 ADD CALLDATALOAD PUSH8 0xFFFFFFFFFFFFFFFF DUP2 GT ISZERO PUSH2 0x1378 JUMPI PUSH2 0x1377 PUSH2 0x131F JUMP JUMPDEST JUMPDEST PUSH2 0x1384 DUP5 DUP3 DUP6 ADD PUSH2 0xED3 JUMP JUMPDEST PUSH1 0x20 DUP4 ADD MSTORE POP PUSH1 0x40 DUP3 ADD CALLDATALOAD PUSH8 0xFFFFFFFFFFFFFFFF DUP2 GT ISZERO PUSH2 0x13A8 JUMPI PUSH2 0x13A7 PUSH2 0x131F JUMP JUMPDEST JUMPDEST PUSH2 0x13B4 DUP5 DUP3 DUP6 ADD PUSH2 0xED3 JUMP JUMPDEST PUSH1 0x40 DUP4 ADD MSTORE POP PUSH1 0x60 PUSH2 0x13C8 DUP5 DUP3 DUP6 ADD PUSH2 0xD41 JUMP JUMPDEST PUSH1 0x60 DUP4 ADD MSTORE POP PUSH1 0x80 PUSH2 0x13DC DUP5 DUP3 DUP6 ADD PUSH2 0xD66 JUMP JUMPDEST PUSH1 0x80 DUP4 ADD MSTORE POP SWAP3 SWAP2 POP POP JUMP JUMPDEST PUSH1 0x0 PUSH1 0x20 DUP3 DUP5 SUB SLT ISZERO PUSH2 0x13FE JUMPI PUSH2 0x13FD PUSH2 0xD16 JUMP JUMPDEST JUMPDEST PUSH1 0x0 DUP3 ADD CALLDATALOAD PUSH8 0xFFFFFFFFFFFFFFFF DUP2 GT ISZERO PUSH2 0x141C JUMPI PUSH2 0x141B PUSH2 0xD1B JUMP JUMPDEST JUMPDEST PUSH2 0x1428 DUP5 DUP3 DUP6 ADD PUSH2 0x1324 JUMP JUMPDEST SWAP2 POP POP SWAP3 SWAP2 POP POP JUMP JUMPDEST PUSH32 0x4E487B7100000000000000000000000000000000000000000000000000000000 PUSH1 0x0 MSTORE PUSH1 0x32 PUSH1 0x4 MSTORE PUSH1 0x24 PUSH1 0x0 REVERT JUMPDEST PUSH32 0x4E487B7100000000000000000000000000000000000000000000000000000000 PUSH1 0x0 MSTORE PUSH1 0x22 PUSH1 0x4 MSTORE PUSH1 0x24 PUSH1 0x0 REVERT JUMPDEST PUSH1 0x0 PUSH1 0x2 DUP3 DIV SWAP1 POP PUSH1 0x1 DUP3 AND DUP1 PUSH2 0x14A7 JUMPI PUSH1 0x7F DUP3 AND SWAP2 POP JUMPDEST PUSH1 0x20 DUP3 LT DUP2 SUB PUSH2 0x14BA JUMPI PUSH2 0x14B9 PUSH2 0x1460 JUMP JUMPDEST JUMPDEST POP SWAP2 SWAP1 POP JUMP JUMPDEST PUSH1 0x0 DUP2 SWAP1 POP DUP2 PUSH1 0x0 MSTORE PUSH1 0x20 PUSH1 0x0 KECCAK256 SWAP1 POP SWAP2 SWAP1 POP JUMP JUMPDEST PUSH1 0x0 PUSH1 0x20 PUSH1 0x1F DUP4 ADD DIV SWAP1 POP SWAP2 SWAP1 POP JUMP JUMPDEST PUSH1 0x0 DUP3 DUP3 SHL SWAP1 POP SWAP3 SWAP2 POP POP JUMP JUMPDEST PUSH1 0x0 PUSH1 0x8 DUP4 MUL PUSH2 0x1522 PUSH32 0xFFFFFFFFFFFFFFFFFFFFFFFFFFFFFFFFFFFFFFFFFFFFFFFFFFFFFFFFFFFFFFFF DUP3 PUSH2 0x14E5 JUMP JUMPDEST PUSH2 0x152C DUP7 DUP4 PUSH2 0x14E5 JUMP JUMPDEST SWAP6 POP DUP1 NOT DUP5 AND SWAP4 POP DUP1 DUP7 AND DUP5 OR SWAP3 POP POP POP SWAP4 SWAP3 POP POP POP JUMP JUMPDEST PUSH1 0x0 DUP2 SWAP1 POP SWAP2 SWAP1 POP JUMP JUMPDEST PUSH1 0x0 PUSH2 0x1569 PUSH2 0x1564 PUSH2 0x155F DUP5 PUSH2 0xD20 JUMP JUMPDEST PUSH2 0x1544 JUMP JUMPDEST PUSH2 0xD20 JUMP JUMPDEST SWAP1 POP SWAP2 SWAP1 POP JUMP JUMPDEST PUSH1 0x0 DUP2 SWAP1 POP SWAP2 SWAP1 POP JUMP JUMPDEST PUSH2 0x1583 DUP4 PUSH2 0x154E JUMP JUMPDEST PUSH2 0x1597 PUSH2 0x158F DUP3 PUSH2 0x1570 JUMP JUMPDEST DUP5 DUP5 SLOAD PUSH2 0x14F2 JUMP JUMPDEST DUP3 SSTORE POP POP POP POP JUMP JUMPDEST PUSH1 0x0 SWAP1 JUMP JUMPDEST PUSH2 0x15AC PUSH2 0x159F JUMP JUMPDEST PUSH2 0x15B7 DUP2 DUP5 DUP5 PUSH2 0x157A JUMP JUMPDEST POP POP POP JUMP JUMPDEST JUMPDEST DUP2 DUP2 LT ISZERO PUSH2 0x15DB JUMPI PUSH2 0x15D0 PUSH1 0x0 DUP3 PUSH2 0x15A4 JUMP JUMPDEST PUSH1 0x1 DUP2 ADD SWAP1 POP PUSH2 0x15BD JUMP JUMPDEST POP POP JUMP JUMPDEST PUSH1 0x1F DUP3 GT ISZERO PUSH2 0x1620 JUMPI PUSH2 0x15F1 DUP2 PUSH2 0x14C0 JUMP JUMPDEST PUSH2 0x15FA DUP5 PUSH2 0x14D5 JUMP JUMPDEST DUP2 ADD PUSH1 0x20 DUP6 LT ISZERO PUSH2 0x1609 JUMPI DUP2 SWAP1 POP JUMPDEST PUSH2 0x161D PUSH2 0x1615 DUP6 PUSH2 0x14D5 JUMP JUMPDEST DUP4 ADD DUP3 PUSH2 0x15BC JUMP JUMPDEST POP POP JUMPDEST POP POP POP JUMP JUMPDEST PUSH1 0x0 DUP3 DUP3 SHR SWAP1 POP SWAP3 SWAP2 POP POP JUMP JUMPDEST PUSH1 0x0 PUSH2 0x1643 PUSH1 0x0 NOT DUP5 PUSH1 0x8 MUL PUSH2 0x1625 JUMP JUMPDEST NOT DUP1 DUP4 AND SWAP2 POP POP SWAP3 SWAP2 POP POP JUMP JUMPDEST PUSH1 0x0 PUSH2 0x165C DUP4 DUP4 PUSH2 0x1632 JUMP JUMPDEST SWAP2 POP DUP3 PUSH1 0x2 MUL DUP3 OR SWAP1 POP SWAP3 SWAP2 POP POP JUMP JUMPDEST PUSH2 0x1675 DUP3 PUSH2 0xF98 JUMP JUMPDEST PUSH8 0xFFFFFFFFFFFFFFFF DUP2 GT ISZERO PUSH2 0x168E JUMPI PUSH2 0x168D PUSH2 0xDD6 JUMP JUMPDEST JUMPDEST PUSH2 0x1698 DUP3 SLOAD PUSH2 0x148F JUMP JUMPDEST PUSH2 0x16A3 DUP3 DUP3 DUP6 PUSH2 0x15DF JUMP JUMPDEST PUSH1 0x0 PUSH1 0x20 SWAP1 POP PUSH1 0x1F DUP4 GT PUSH1 0x1 DUP2 EQ PUSH2 0x16D6 JUMPI PUSH1 0x0 DUP5 ISZERO PUSH2 0x16C4 JUMPI DUP3 DUP8 ADD MLOAD SWAP1 POP JUMPDEST PUSH2 0x16CE DUP6 DUP3 PUSH2 0x1650 JUMP JUMPDEST DUP7 SSTORE POP PUSH2 0x1736 JUMP JUMPDEST PUSH1 0x1F NOT DUP5 AND PUSH2 0x16E4 DUP7 PUSH2 0x14C0 JUMP JUMPDEST PUSH1 0x0 JUMPDEST DUP3 DUP2 LT ISZERO PUSH2 0x170C JUMPI DUP5 DUP10 ADD MLOAD DUP3 SSTORE PUSH1 0x1 DUP3 ADD SWAP2 POP PUSH1 0x20 DUP6 ADD SWAP5 POP PUSH1 0x20 DUP2 ADD SWAP1 POP PUSH2 0x16E7 JUMP JUMPDEST DUP7 DUP4 LT ISZERO PUSH2 0x1729 JUMPI DUP5 DUP10 ADD MLOAD PUSH2 0x1725 PUSH1 0x1F DUP10 AND DUP3 PUSH2 0x1632 JUMP JUMPDEST DUP4 SSTORE POP JUMPDEST PUSH1 0x1 PUSH1 0x2 DUP9 MUL ADD DUP9 SSTORE POP POP POP JUMPDEST POP POP POP POP POP POP JUMP JUMPDEST PUSH32 0x4E487B7100000000000000000000000000000000000000000000000000000000 PUSH1 0x0 MSTORE PUSH1 0x11 PUSH1 0x4 MSTORE PUSH1 0x24 PUSH1 0x0 REVERT JUMPDEST PUSH1 0x0 PUSH2 0x1778 DUP3 PUSH2 0xD20 JUMP JUMPDEST SWAP2 POP PUSH2 0x1783 DUP4 PUSH2 0xD20 JUMP JUMPDEST SWAP3 POP DUP3 DUP3 SUB SWAP1 POP DUP2 DUP2 GT ISZERO PUSH2 0x179B JUMPI PUSH2 0x179A PUSH2 0x173E JUMP JUMPDEST JUMPDEST SWAP3 SWAP2 POP POP JUMP JUMPDEST PUSH1 0x0 DUP2 SLOAD SWAP1 POP PUSH2 0x17B0 DUP2 PUSH2 0x148F JUMP JUMPDEST SWAP1 POP SWAP2 SWAP1 POP JUMP JUMPDEST DUP2 DUP2 SUB PUSH2 0x17C5 JUMPI POP POP PUSH2 0x189D JUMP JUMPDEST PUSH2 0x17CE DUP3 PUSH2 0x17A1 JUMP JUMPDEST PUSH8 0xFFFFFFFFFFFFFFFF DUP2 GT ISZERO PUSH2 0x17E7 JUMPI PUSH2 0x17E6 PUSH2 0xDD6 JUMP JUMPDEST JUMPDEST PUSH2 0x17F1 DUP3 SLOAD PUSH2 0x148F JUMP JUMPDEST PUSH2 0x17FC DUP3 DUP3 DUP6 PUSH2 0x15DF JUMP JUMPDEST PUSH1 0x0 PUSH1 0x1F DUP4 GT PUSH1 0x1 DUP2 EQ PUSH2 0x182B JUMPI PUSH1 0x0 DUP5 ISZERO PUSH2 0x1819 JUMPI DUP3 DUP8 ADD SLOAD SWAP1 POP JUMPDEST PUSH2 0x1823 DUP6 DUP3 PUSH2 0x1650 JUMP JUMPDEST DUP7 SSTORE POP PUSH2 0x1896 JUMP JUMPDEST PUSH1 0x1F NOT DUP5 AND PUSH2 0x1839 DUP8 PUSH2 0x14C0 JUMP JUMPDEST SWAP7 POP PUSH2 0x1844 DUP7 PUSH2 0x14C0 JUMP JUMPDEST PUSH1 0x0 JUMPDEST DUP3 DUP2 LT ISZERO PUSH2 0x186C JUMPI DUP5 DUP10 ADD SLOAD DUP3 SSTORE PUSH1 0x1 DUP3 ADD SWAP2 POP PUSH1 0x1 DUP6 ADD SWAP5 POP PUSH1 0x20 DUP2 ADD SWAP1 POP PUSH2 0x1847 JUMP JUMPDEST DUP7 DUP4 LT ISZERO PUSH2 0x1889 JUMPI DUP5 DUP10 ADD SLOAD PUSH2 0x1885 PUSH1 0x1F DUP10 AND DUP3 PUSH2 0x1632 JUMP JUMPDEST DUP4 SSTORE POP JUMPDEST PUSH1 0x1 PUSH1 0x2 DUP9 MUL ADD DUP9 SSTORE POP POP POP JUMPDEST POP POP POP POP POP POP JUMPDEST JUMP JUMPDEST PUSH32 0x4E487B7100000000000000000000000000000000000000000000000000000000 PUSH1 0x0 MSTORE PUSH1 0x31 PUSH1 0x4 MSTORE PUSH1 0x24 PUSH1 0x0 REVERT JUMPDEST PUSH1 0x0 PUSH2 0x18D9 DUP3 PUSH2 0xD20 JUMP JUMPDEST SWAP2 POP PUSH2 0x18E4 DUP4 PUSH2 0xD20 JUMP JUMPDEST SWAP3 POP DUP3 DUP3 ADD SWAP1 POP DUP1 DUP3 GT ISZERO PUSH2 0x18FC JUMPI PUSH2 0x18FB PUSH2 0x173E JUMP JUMPDEST JUMPDEST SWAP3 SWAP2 POP POP JUMP INVALID LOG2 PUSH5 0x6970667358 0x22 SLT KECCAK256 PUSH25 0x478E09CE0A45A81AEC11BA8DB602C7F8C7F1AA9DDEBB89CCEF CREATE PUSH20 0xB9D7B79764736F6C634300081C00330000000000 "
        },
        "methodIdentifiers": {
          "another_registration((uint256,string,string,uint256,uint8))": "daeb3821",
          "delete_student(uint256)": "3f09a538",
          "get_all_students()": "3ab9a9ec",
          "get_student_by_id(uint256)": "8f3354fe",
          "register_student(string,string,uint256)": "c9b72927",
          "update_student(uint256,string)": "2773a286",
          "update_students_status(uint256,uint8)": "15c5f3e3"
        }
      }
    }
  }
}