{
  "_format": "hh-sol-artifact-1",
  "contractName": "EmployeeManager",
  "sourceName": "contracts/Employee.sol",
  "abi": [
    {
      "inputs": [
        {
          "internalType": "address",
          "name": "user",
          "type": "address"
        }
      ],
      "name": "AlreadyRegistered",
      "type": "error"
    },
    {
      "inputs": [
        {
          "internalType": "uint8",
          "name": "role",
          "type": "uint8"
        }
      ],
      "name": "InvalidRole",
      "type": "error"
    },
    {
      "inputs": [
        {
          "internalType": "address",
          "name": "user",
          "type": "address"
        }
      ],
      "name": "NotEmployed",
      "type": "error"
    },
    {
      "inputs": [
        {
          "internalType": "uint256",
          "name": "requested",
          "type": "uint256"
        },
        {
          "internalType": "uint256",
          "name": "agreed",
          "type": "uint256"
        }
      ],
      "name": "SalaryExceeded",
      "type": "error"
    },
    {
      "inputs": [],
      "name": "Unauthorized",
      "type": "error"
    },
    {
      "inputs": [
        {
          "internalType": "address",
          "name": "user",
          "type": "address"
        },
        {
          "internalType": "uint256",
          "name": "amount",
          "type": "uint256"
        }
      ],
      "name": "disburseSalary",
      "outputs": [],
      "stateMutability": "nonpayable",
      "type": "function"
    },
    {
      "inputs": [],
      "name": "getAllUsers",
      "outputs": [
        {
          "internalType": "address[]",
          "name": "",
          "type": "address[]"
        }
      ],
      "stateMutability": "view",
      "type": "function"
    },
    {
      "inputs": [
        {
          "internalType": "address",
          "name": "user",
          "type": "address"
        }
      ],
      "name": "getUserDetails",
      "outputs": [
        {
          "internalType": "string",
          "name": "",
          "type": "string"
        },
        {
          "internalType": "uint256",
          "name": "",
          "type": "uint256"
        },
        {
          "internalType": "string",
          "name": "",
          "type": "string"
        },
        {
          "internalType": "bool",
          "name": "",
          "type": "bool"
        }
      ],
      "stateMutability": "view",
      "type": "function"
    },
    {
      "inputs": [],
      "name": "owner",
      "outputs": [
        {
          "internalType": "address",
          "name": "",
          "type": "address"
        }
      ],
      "stateMutability": "view",
      "type": "function"
    },
    {
      "inputs": [
        {
          "internalType": "address",
          "name": "user",
          "type": "address"
        },
        {
          "internalType": "string",
          "name": "name",
          "type": "string"
        },
        {
          "internalType": "uint256",
          "name": "salary",
          "type": "uint256"
        },
        {
          "internalType": "uint8",
          "name": "role",
          "type": "uint8"
        }
      ],
      "name": "registerUser",
      "outputs": [],
      "stateMutability": "nonpayable",
      "type": "function"
    },
    {
      "inputs": [
        {
          "internalType": "address",
          "name": "newOwner",
          "type": "address"
        }
      ],
      "name": "setOwner",
      "outputs": [],
      "stateMutability": "nonpayable",
      "type": "function"
    },
    {
      "stateMutability": "payable",
      "type": "receive"
    }
  ],
  "bytecode": "0x6080604052348015600f57600080fd5b506113488061001f6000396000f3fe6080604052600436106100595760003560e01c806313af4035146100655780638da5cb5b1461008e578063bba2270a146100b9578063cc3d967b146100e2578063e2842d7914610122578063f07af6a21461014d57610060565b3661006057005b600080fd5b34801561007157600080fd5b5061008c60048036038101906100879190610ba3565b610176565b005b34801561009a57600080fd5b506100a361023f565b6040516100b09190610bdf565b60405180910390f35b3480156100c557600080fd5b506100e060048036038101906100db9190610c30565b610263565b005b3480156100ee57600080fd5b5061010960048036038101906101049190610ba3565b610509565b6040516101199493929190610d2a565b60405180910390f35b34801561012e57600080fd5b5061013761067c565b6040516101449190610e3b565b60405180910390f35b34801561015957600080fd5b50610174600480360381019061016f9190610efb565b61070a565b005b600073ffffffffffffffffffffffffffffffffffffffff1660008054906101000a900473ffffffffffffffffffffffffffffffffffffffff1673ffffffffffffffffffffffffffffffffffffffff16146101fc576040517f82b4290000000000000000000000000000000000000000000000000000000000815260040160405180910390fd5b806000806101000a81548173ffffffffffffffffffffffffffffffffffffffff021916908373ffffffffffffffffffffffffffffffffffffffff16021790555050565b60008054906101000a900473ffffffffffffffffffffffffffffffffffffffff1681565b60008054906101000a900473ffffffffffffffffffffffffffffffffffffffff1673ffffffffffffffffffffffffffffffffffffffff163373ffffffffffffffffffffffffffffffffffffffff16146102e8576040517f82b4290000000000000000000000000000000000000000000000000000000000815260040160405180910390fd5b6000600160008473ffffffffffffffffffffffffffffffffffffffff1673ffffffffffffffffffffffffffffffffffffffff16815260200190815260200160002060405180608001604052908160008201805461034490610fb2565b80601f016020809104026020016040519081016040528092919081815260200182805461037090610fb2565b80156103bd5780601f10610392576101008083540402835291602001916103bd565b820191906000526020600020905b8154815290600101906020018083116103a057829003601f168201915b50505050508152602001600182015481526020016002820160009054906101000a900460ff1660028111156103f5576103f4610fe3565b5b600281111561040757610406610fe3565b5b81526020016002820160019054906101000a900460ff1615151515815250509050806060015161046e57826040517f5734da430000000000000000000000000000000000000000000000000000000081526004016104659190610bdf565b60405180910390fd5b80602001518211156104bd578181602001516040517ffc8a00f70000000000000000000000000000000000000000000000000000000081526004016104b4929190611012565b60405180910390fd5b8273ffffffffffffffffffffffffffffffffffffffff166108fc839081150290604051600060405180830381858888f19350505050158015610503573d6000803e3d6000fd5b50505050565b606060006060600080600160008773ffffffffffffffffffffffffffffffffffffffff1673ffffffffffffffffffffffffffffffffffffffff16815260200190815260200160002060405180608001604052908160008201805461056c90610fb2565b80601f016020809104026020016040519081016040528092919081815260200182805461059890610fb2565b80156105e55780601f106105ba576101008083540402835291602001916105e5565b820191906000526020600020905b8154815290600101906020018083116105c857829003601f168201915b50505050508152602001600182015481526020016002820160009054906101000a900460ff16600281111561061d5761061c610fe3565b5b600281111561062f5761062e610fe3565b5b81526020016002820160019054906101000a900460ff1615151515815250509050806000015181602001516106678360400151610a29565b83606001519450945094509450509193509193565b6060600280548060200260200160405190810160405280929190818152602001828054801561070057602002820191906000526020600020905b8160009054906101000a900473ffffffffffffffffffffffffffffffffffffffff1673ffffffffffffffffffffffffffffffffffffffff16815260200190600101908083116106b6575b5050505050905090565b60008054906101000a900473ffffffffffffffffffffffffffffffffffffffff1673ffffffffffffffffffffffffffffffffffffffff163373ffffffffffffffffffffffffffffffffffffffff161461078f576040517f82b4290000000000000000000000000000000000000000000000000000000000815260040160405180910390fd5b600160008673ffffffffffffffffffffffffffffffffffffffff1673ffffffffffffffffffffffffffffffffffffffff16815260200190815260200160002060020160019054906101000a900460ff161561082157846040517f45ed80e90000000000000000000000000000000000000000000000000000000081526004016108189190610bdf565b60405180910390fd5b60028081111561083457610833610fe3565b5b60ff168160ff16111561087e57806040517ff17864de000000000000000000000000000000000000000000000000000000008152600401610875919061104a565b60405180910390fd5b604051806080016040528085858080601f016020809104026020016040519081016040528093929190818152602001838380828437600081840152601f19601f8201169050808301925050505050505081526020018381526020018260ff1660028111156108ef576108ee610fe3565b5b600281111561090157610900610fe3565b5b815260200160011515815250600160008773ffffffffffffffffffffffffffffffffffffffff1673ffffffffffffffffffffffffffffffffffffffff16815260200190815260200160002060008201518160000190816109619190611240565b506020820151816001015560408201518160020160006101000a81548160ff0219169083600281111561099757610996610fe3565b5b021790555060608201518160020160016101000a81548160ff0219169083151502179055509050506002859080600181540180825580915050600190039060005260206000200160009091909190916101000a81548173ffffffffffffffffffffffffffffffffffffffff021916908373ffffffffffffffffffffffffffffffffffffffff1602179055505050505050565b606060006002811115610a3f57610a3e610fe3565b5b826002811115610a5257610a51610fe3565b5b03610a94576040518060400160405280600681526020017f6d656e746f7200000000000000000000000000000000000000000000000000008152509050610b36565b60016002811115610aa857610aa7610fe3565b5b826002811115610abb57610aba610fe3565b5b03610afd576040518060400160405280600581526020017f61646d696e0000000000000000000000000000000000000000000000000000008152509050610b36565b6040518060400160405280600881526020017f736563757269747900000000000000000000000000000000000000000000000081525090505b919050565b600080fd5b600080fd5b600073ffffffffffffffffffffffffffffffffffffffff82169050919050565b6000610b7082610b45565b9050919050565b610b8081610b65565b8114610b8b57600080fd5b50565b600081359050610b9d81610b77565b92915050565b600060208284031215610bb957610bb8610b3b565b5b6000610bc784828501610b8e565b91505092915050565b610bd981610b65565b82525050565b6000602082019050610bf46000830184610bd0565b92915050565b6000819050919050565b610c0d81610bfa565b8114610c1857600080fd5b50565b600081359050610c2a81610c04565b92915050565b60008060408385031215610c4757610c46610b3b565b5b6000610c5585828601610b8e565b9250506020610c6685828601610c1b565b9150509250929050565b600081519050919050565b600082825260208201905092915050565b60005b83811015610caa578082015181840152602081019050610c8f565b60008484015250505050565b6000601f19601f8301169050919050565b6000610cd282610c70565b610cdc8185610c7b565b9350610cec818560208601610c8c565b610cf581610cb6565b840191505092915050565b610d0981610bfa565b82525050565b60008115159050919050565b610d2481610d0f565b82525050565b60006080820190508181036000830152610d448187610cc7565b9050610d536020830186610d00565b8181036040830152610d658185610cc7565b9050610d746060830184610d1b565b95945050505050565b600081519050919050565b600082825260208201905092915050565b6000819050602082019050919050565b610db281610b65565b82525050565b6000610dc48383610da9565b60208301905092915050565b6000602082019050919050565b6000610de882610d7d565b610df28185610d88565b9350610dfd83610d99565b8060005b83811015610e2e578151610e158882610db8565b9750610e2083610dd0565b925050600181019050610e01565b5085935050505092915050565b60006020820190508181036000830152610e558184610ddd565b905092915050565b600080fd5b600080fd5b600080fd5b60008083601f840112610e8257610e81610e5d565b5b8235905067ffffffffffffffff811115610e9f57610e9e610e62565b5b602083019150836001820283011115610ebb57610eba610e67565b5b9250929050565b600060ff82169050919050565b610ed881610ec2565b8114610ee357600080fd5b50565b600081359050610ef581610ecf565b92915050565b600080600080600060808688031215610f1757610f16610b3b565b5b6000610f2588828901610b8e565b955050602086013567ffffffffffffffff811115610f4657610f45610b40565b5b610f5288828901610e6c565b94509450506040610f6588828901610c1b565b9250506060610f7688828901610ee6565b9150509295509295909350565b7f4e487b7100000000000000000000000000000000000000000000000000000000600052602260045260246000fd5b60006002820490506001821680610fca57607f821691505b602082108103610fdd57610fdc610f83565b5b50919050565b7f4e487b7100000000000000000000000000000000000000000000000000000000600052602160045260246000fd5b60006040820190506110276000830185610d00565b6110346020830184610d00565b9392505050565b61104481610ec2565b82525050565b600060208201905061105f600083018461103b565b92915050565b7f4e487b7100000000000000000000000000000000000000000000000000000000600052604160045260246000fd5b60008190508160005260206000209050919050565b60006020601f8301049050919050565b600082821b905092915050565b6000600883026110f67fffffffffffffffffffffffffffffffffffffffffffffffffffffffffffffffff826110b9565b61110086836110b9565b95508019841693508086168417925050509392505050565b6000819050919050565b600061113d61113861113384610bfa565b611118565b610bfa565b9050919050565b6000819050919050565b61115783611122565b61116b61116382611144565b8484546110c6565b825550505050565b600090565b611180611173565b61118b81848461114e565b505050565b5b818110156111af576111a4600082611178565b600181019050611191565b5050565b601f8211156111f4576111c581611094565b6111ce846110a9565b810160208510156111dd578190505b6111f16111e9856110a9565b830182611190565b50505b505050565b600082821c905092915050565b6000611217600019846008026111f9565b1980831691505092915050565b60006112308383611206565b9150826002028217905092915050565b61124982610c70565b67ffffffffffffffff81111561126257611261611065565b5b61126c8254610fb2565b6112778282856111b3565b600060209050601f8311600181146112aa5760008415611298578287015190505b6112a28582611224565b86555061130a565b601f1984166112b886611094565b60005b828110156112e0578489015182556001820191506020850194506020810190506112bb565b868310156112fd57848901516112f9601f891682611206565b8355505b6001600288020188555050505b50505050505056fea2646970667358221220a3e2c89f0e9fe9ee5e9417069eff1d7f6b74c4a027b965e5e019dbb78a5563a764736f6c634300081c0033",
  "linkReferences": {},
  "deployedLinkReferences": {}
}