{
  "_format": "hh-sol-artifact-1",
  "contractName": "SavingsAccount",
  "sourceName": "contracts/SavingsAccount.sol",
  "abi": [
    {
      "inputs": [
        {
          "internalType": "address",
          "name": "_owner",
          "type": "address"
        },
        {
          "internalType": "address",
          "name": "_token",
          "type": "address"
        },
        {
          "internalType": "uint256",
          "name": "_lockPeriod",
          "type": "uint256"
        },
        {
          "internalType": "address",
          "name": "_factoryAdmin",
          "type": "address"
        }
      ],
      "stateMutability": "nonpayable",
      "type": "constructor"
    },
    {
      "anonymous": false,
      "inputs": [
        {
          "indexed": true,
          "internalType": "address",
          "name": "from",
          "type": "address"
        },
        {
          "indexed": false,
          "internalType": "uint256",
          "name": "amount",
          "type": "uint256"
        }
      ],
      "name": "Deposited",
      "type": "event"
    },
    {
      "anonymous": false,
      "inputs": [
        {
          "indexed": true,
          "internalType": "address",
          "name": "from",
          "type": "address"
        },
        {
          "indexed": false,
          "internalType": "uint256",
          "name": "amount",
          "type": "uint256"
        }
      ],
      "name": "ERC20Deposited",
      "type": "event"
    },
    {
      "anonymous": false,
      "inputs": [
        {
          "indexed": true,
          "internalType": "address",
          "name": "to",
          "type": "address"
        },
        {
          "indexed": false,
          "internalType": "uint256",
          "name": "amount",
          "type": "uint256"
        },
        {
          "indexed": false,
          "internalType": "uint256",
          "name": "fee",
          "type": "uint256"
        },
        {
          "indexed": false,
          "internalType": "bool",
          "name": "early",
          "type": "bool"
        }
      ],
      "name": "Withdrawn",
      "type": "event"
    },
    {
      "inputs": [],
      "name": "balance",
      "outputs": [
        {
          "internalType": "uint256",
          "name": "",
          "type": "uint256"
        }
      ],
      "stateMutability": "view",
      "type": "function"
    },
    {
      "inputs": [],
      "name": "createdAt",
      "outputs": [
        {
          "internalType": "uint256",
          "name": "",
          "type": "uint256"
        }
      ],
      "stateMutability": "view",
      "type": "function"
    },
    {
      "inputs": [
        {
          "internalType": "uint256",
          "name": "amount",
          "type": "uint256"
        }
      ],
      "name": "depositERC20",
      "outputs": [],
      "stateMutability": "nonpayable",
      "type": "function"
    },
    {
      "inputs": [],
      "name": "depositETH",
      "outputs": [],
      "stateMutability": "payable",
      "type": "function"
    },
    {
      "inputs": [],
      "name": "factoryAdmin",
      "outputs": [
        {
          "internalType": "address",
          "name": "",
          "type": "address"
        }
      ],
      "stateMutability": "view",
      "type": "function"
    },
    {
      "inputs": [],
      "name": "getBalance",
      "outputs": [
        {
          "internalType": "uint256",
          "name": "",
          "type": "uint256"
        }
      ],
      "stateMutability": "view",
      "type": "function"
    },
    {
      "inputs": [],
      "name": "lockExpired",
      "outputs": [
        {
          "internalType": "bool",
          "name": "",
          "type": "bool"
        }
      ],
      "stateMutability": "view",
      "type": "function"
    },
    {
      "inputs": [],
      "name": "lockPeriod",
      "outputs": [
        {
          "internalType": "uint256",
          "name": "",
          "type": "uint256"
        }
      ],
      "stateMutability": "view",
      "type": "function"
    },
    {
      "inputs": [],
      "name": "owner",
      "outputs": [
        {
          "internalType": "address",
          "name": "",
          "type": "address"
        }
      ],
      "stateMutability": "view",
      "type": "function"
    },
    {
      "inputs": [],
      "name": "token",
      "outputs": [
        {
          "internalType": "address",
          "name": "",
          "type": "address"
        }
      ],
      "stateMutability": "view",
      "type": "function"
    },
    {
      "inputs": [],
      "name": "withdraw",
      "outputs": [],
      "stateMutability": "nonpayable",
      "type": "function"
    }
  ],
  "bytecode": "0x60806040523480156200001157600080fd5b50604051620019453803806200194583398181016040528101906200003791906200029a565b600073ffffffffffffffffffffffffffffffffffffffff168473ffffffffffffffffffffffffffffffffffffffff1603620000a9576040517f08c379a0000000000000000000000000000000000000000000000000000000008152600401620000a0906200036d565b60405180910390fd5b600073ffffffffffffffffffffffffffffffffffffffff168173ffffffffffffffffffffffffffffffffffffffff16036200011b576040517f08c379a00000000000000000000000000000000000000000000000000000000081526004016200011290620003df565b60405180910390fd5b836000806101000a81548173ffffffffffffffffffffffffffffffffffffffff021916908373ffffffffffffffffffffffffffffffffffffffff16021790555082600260006101000a81548173ffffffffffffffffffffffffffffffffffffffff021916908373ffffffffffffffffffffffffffffffffffffffff160217905550816003819055504260048190555080600160006101000a81548173ffffffffffffffffffffffffffffffffffffffff021916908373ffffffffffffffffffffffffffffffffffffffff1602179055505050505062000401565b600080fd5b600073ffffffffffffffffffffffffffffffffffffffff82169050919050565b60006200022782620001fa565b9050919050565b62000239816200021a565b81146200024557600080fd5b50565b60008151905062000259816200022e565b92915050565b6000819050919050565b62000274816200025f565b81146200028057600080fd5b50565b600081519050620002948162000269565b92915050565b60008060008060808587031215620002b757620002b6620001f5565b5b6000620002c78782880162000248565b9450506020620002da8782880162000248565b9350506040620002ed8782880162000283565b9250506060620003008782880162000248565b91505092959194509250565b600082825260208201905092915050565b7f696e76616c6964206f776e657200000000000000000000000000000000000000600082015250565b600062000355600d836200030c565b915062000362826200031d565b602082019050919050565b60006020820190508181036000830152620003888162000346565b9050919050565b7f696e76616c69642061646d696e00000000000000000000000000000000000000600082015250565b6000620003c7600d836200030c565b9150620003d4826200038f565b602082019050919050565b60006020820190508181036000830152620003fa81620003b8565b9050919050565b61153480620004116000396000f3fe60806040526004361061009c5760003560e01c8063b69ef8a811610064578063b69ef8a814610164578063b79092fd1461018f578063bb025a3f146101b8578063cf09e0d0146101e3578063f6326fb31461020e578063fc0c546a146102185761009c565b806312065fe0146100a157806317d8ec7f146100cc5780633ccfd60b146100f75780633fd8b02f1461010e5780638da5cb5b14610139575b600080fd5b3480156100ad57600080fd5b506100b6610243565b6040516100c39190610da7565b60405180910390f35b3480156100d857600080fd5b506100e161024d565b6040516100ee9190610e03565b60405180910390f35b34801561010357600080fd5b5061010c610273565b005b34801561011a57600080fd5b506101236108aa565b6040516101309190610da7565b60405180910390f35b34801561014557600080fd5b5061014e6108b0565b60405161015b9190610e03565b60405180910390f35b34801561017057600080fd5b506101796108d4565b6040516101869190610da7565b60405180910390f35b34801561019b57600080fd5b506101b660048036038101906101b19190610e4f565b6108da565b005b3480156101c457600080fd5b506101cd610b85565b6040516101da9190610e97565b60405180910390f35b3480156101ef57600080fd5b506101f8610b9f565b6040516102059190610da7565b60405180910390f35b610216610ba5565b005b34801561022457600080fd5b5061022d610d68565b60405161023a9190610e03565b60405180910390f35b6000600554905090565b600160009054906101000a900473ffffffffffffffffffffffffffffffffffffffff1681565b60008054906101000a900473ffffffffffffffffffffffffffffffffffffffff1673ffffffffffffffffffffffffffffffffffffffff163373ffffffffffffffffffffffffffffffffffffffff1614610301576040517f08c379a00000000000000000000000000000000000000000000000000000000081526004016102f890610f0f565b60405180910390fd5b600660009054906101000a900460ff1615610351576040517f08c379a000000000000000000000000000000000000000000000000000000000815260040161034890610f7b565b60405180910390fd5b6001600660006101000a81548160ff0219169083151502179055506000600554116103b1576040517f08c379a00000000000000000000000000000000000000000000000000000000081526004016103a890610fe7565b60405180910390fd5b60006005549050600060058190555060006003546004546103d29190611036565b42109050600081156103fa5760646003846103ed919061106a565b6103f791906110db565b90505b60008184610408919061110c565b9050600073ffffffffffffffffffffffffffffffffffffffff16600260009054906101000a900473ffffffffffffffffffffffffffffffffffffffff1673ffffffffffffffffffffffffffffffffffffffff160361060c576000821115610539576000600160009054906101000a900473ffffffffffffffffffffffffffffffffffffffff1673ffffffffffffffffffffffffffffffffffffffff16836040516104b190611171565b60006040518083038185875af1925050503d80600081146104ee576040519150601f19603f3d011682016040523d82523d6000602084013e6104f3565b606091505b5050905080610537576040517f08c379a000000000000000000000000000000000000000000000000000000000815260040161052e906111d2565b60405180910390fd5b505b60008060009054906101000a900473ffffffffffffffffffffffffffffffffffffffff1673ffffffffffffffffffffffffffffffffffffffff168260405161058090611171565b60006040518083038185875af1925050503d80600081146105bd576040519150601f19603f3d011682016040523d82523d6000602084013e6105c2565b606091505b5050905080610606576040517f08c379a00000000000000000000000000000000000000000000000000000000081526004016105fd9061123e565b60405180910390fd5b50610817565b600082111561071757600260009054906101000a900473ffffffffffffffffffffffffffffffffffffffff1673ffffffffffffffffffffffffffffffffffffffff1663a9059cbb600160009054906101000a900473ffffffffffffffffffffffffffffffffffffffff16846040518363ffffffff1660e01b815260040161069492919061125e565b6020604051808303816000875af11580156106b3573d6000803e3d6000fd5b505050506040513d601f19601f820116820180604052508101906106d791906112b3565b610716576040517f08c379a000000000000000000000000000000000000000000000000000000000815260040161070d906111d2565b60405180910390fd5b5b600260009054906101000a900473ffffffffffffffffffffffffffffffffffffffff1673ffffffffffffffffffffffffffffffffffffffff1663a9059cbb60008054906101000a900473ffffffffffffffffffffffffffffffffffffffff16836040518363ffffffff1660e01b815260040161079492919061125e565b6020604051808303816000875af11580156107b3573d6000803e3d6000fd5b505050506040513d601f19601f820116820180604052508101906107d791906112b3565b610816576040517f08c379a000000000000000000000000000000000000000000000000000000000815260040161080d9061123e565b60405180910390fd5b5b60008054906101000a900473ffffffffffffffffffffffffffffffffffffffff1673ffffffffffffffffffffffffffffffffffffffff167f217c645ce2c5eb2497bdb6d9400205f1253e8607b2aea960637fa705f2130401828486604051610881939291906112e0565b60405180910390a2505050506000600660006101000a81548160ff021916908315150217905550565b60035481565b60008054906101000a900473ffffffffffffffffffffffffffffffffffffffff1681565b60055481565b600660009054906101000a900460ff161561092a576040517f08c379a000000000000000000000000000000000000000000000000000000000815260040161092190610f7b565b60405180910390fd5b6001600660006101000a81548160ff021916908315150217905550600073ffffffffffffffffffffffffffffffffffffffff16600260009054906101000a900473ffffffffffffffffffffffffffffffffffffffff1673ffffffffffffffffffffffffffffffffffffffff16036109d6576040517f08c379a00000000000000000000000000000000000000000000000000000000081526004016109cd90611363565b60405180910390fd5b60008111610a19576040517f08c379a0000000000000000000000000000000000000000000000000000000008152600401610a10906113cf565b60405180910390fd5b6000600260009054906101000a900473ffffffffffffffffffffffffffffffffffffffff1673ffffffffffffffffffffffffffffffffffffffff166323b872dd3330856040518463ffffffff1660e01b8152600401610a7a939291906113ef565b6020604051808303816000875af1158015610a99573d6000803e3d6000fd5b505050506040513d601f19601f82011682018060405250810190610abd91906112b3565b905080610aff576040517f08c379a0000000000000000000000000000000000000000000000000000000008152600401610af690611472565b60405180910390fd5b8160056000828254610b119190611036565b925050819055503373ffffffffffffffffffffffffffffffffffffffff167fab79632de7fe1724598ce2214eaa326d90d48064d2d3397406ecc5769316a5f683604051610b5e9190610da7565b60405180910390a2506000600660006101000a81548160ff02191690831515021790555050565b6000600354600454610b979190611036565b421015905090565b60045481565b600660009054906101000a900460ff1615610bf5576040517f08c379a0000000000000000000000000000000000000000000000000000000008152600401610bec90610f7b565b60405180910390fd5b6001600660006101000a81548160ff021916908315150217905550600073ffffffffffffffffffffffffffffffffffffffff16600260009054906101000a900473ffffffffffffffffffffffffffffffffffffffff1673ffffffffffffffffffffffffffffffffffffffff1614610ca1576040517f08c379a0000000000000000000000000000000000000000000000000000000008152600401610c98906114de565b60405180910390fd5b60003411610ce4576040517f08c379a0000000000000000000000000000000000000000000000000000000008152600401610cdb906113cf565b60405180910390fd5b3460056000828254610cf69190611036565b925050819055503373ffffffffffffffffffffffffffffffffffffffff167f2da466a7b24304f47e87fa2e1e5a81b9831ce54fec19055ce277ca2f39ba42c434604051610d439190610da7565b60405180910390a26000600660006101000a81548160ff021916908315150217905550565b600260009054906101000a900473ffffffffffffffffffffffffffffffffffffffff1681565b6000819050919050565b610da181610d8e565b82525050565b6000602082019050610dbc6000830184610d98565b92915050565b600073ffffffffffffffffffffffffffffffffffffffff82169050919050565b6000610ded82610dc2565b9050919050565b610dfd81610de2565b82525050565b6000602082019050610e186000830184610df4565b92915050565b600080fd5b610e2c81610d8e565b8114610e3757600080fd5b50565b600081359050610e4981610e23565b92915050565b600060208284031215610e6557610e64610e1e565b5b6000610e7384828501610e3a565b91505092915050565b60008115159050919050565b610e9181610e7c565b82525050565b6000602082019050610eac6000830184610e88565b92915050565b600082825260208201905092915050565b7f6f6e6c79206f776e657200000000000000000000000000000000000000000000600082015250565b6000610ef9600a83610eb2565b9150610f0482610ec3565b602082019050919050565b60006020820190508181036000830152610f2881610eec565b9050919050565b7f7265656e7472616e740000000000000000000000000000000000000000000000600082015250565b6000610f65600983610eb2565b9150610f7082610f2f565b602082019050919050565b60006020820190508181036000830152610f9481610f58565b9050919050565b7f7a65726f2062616c616e63650000000000000000000000000000000000000000600082015250565b6000610fd1600c83610eb2565b9150610fdc82610f9b565b602082019050919050565b6000602082019050818103600083015261100081610fc4565b9050919050565b7f4e487b7100000000000000000000000000000000000000000000000000000000600052601160045260246000fd5b600061104182610d8e565b915061104c83610d8e565b925082820190508082111561106457611063611007565b5b92915050565b600061107582610d8e565b915061108083610d8e565b925082820261108e81610d8e565b915082820484148315176110a5576110a4611007565b5b5092915050565b7f4e487b7100000000000000000000000000000000000000000000000000000000600052601260045260246000fd5b60006110e682610d8e565b91506110f183610d8e565b925082611101576111006110ac565b5b828204905092915050565b600061111782610d8e565b915061112283610d8e565b925082820390508181111561113a57611139611007565b5b92915050565b600081905092915050565b50565b600061115b600083611140565b91506111668261114b565b600082019050919050565b600061117c8261114e565b9150819050919050565b7f666565206661696c000000000000000000000000000000000000000000000000600082015250565b60006111bc600883610eb2565b91506111c782611186565b602082019050919050565b600060208201905081810360008301526111eb816111af565b9050919050565b7f7061796f7574206661696c000000000000000000000000000000000000000000600082015250565b6000611228600b83610eb2565b9150611233826111f2565b602082019050919050565b600060208201905081810360008301526112578161121b565b9050919050565b60006040820190506112736000830185610df4565b6112806020830184610d98565b9392505050565b61129081610e7c565b811461129b57600080fd5b50565b6000815190506112ad81611287565b92915050565b6000602082840312156112c9576112c8610e1e565b5b60006112d78482850161129e565b91505092915050565b60006060820190506112f56000830186610d98565b6113026020830185610d98565b61130f6040830184610e88565b949350505050565b7f6e6f742045524332300000000000000000000000000000000000000000000000600082015250565b600061134d600983610eb2565b915061135882611317565b602082019050919050565b6000602082019050818103600083015261137c81611340565b9050919050565b7f7a65726f206465706f7369740000000000000000000000000000000000000000600082015250565b60006113b9600c83610eb2565b91506113c482611383565b602082019050919050565b600060208201905081810360008301526113e8816113ac565b9050919050565b60006060820190506114046000830186610df4565b6114116020830185610df4565b61141e6040830184610d98565b949350505050565b7f7472616e7366657246726f6d206661696c656400000000000000000000000000600082015250565b600061145c601383610eb2565b915061146782611426565b602082019050919050565b6000602082019050818103600083015261148b8161144f565b9050919050565b7f6e6f742045544800000000000000000000000000000000000000000000000000600082015250565b60006114c8600783610eb2565b91506114d382611492565b602082019050919050565b600060208201905081810360008301526114f7816114bb565b905091905056fea264697066735822122001d094182209b9b9270ad45d6b88aed459f5fb56526d565aad9be31dbe59b6f664736f6c63430008140033",
  "linkReferences": {},
  "deployedLinkReferences": {}
}