{"abi":[{"type":"constructor","inputs":[{"name":"_tokenAddress","type":"address","internalType":"address"},{"name":"_ticketNFTAddress","type":"address","internalType":"address"},{"name":"_ticketPrice","type":"uint256","internalType":"uint256"}],"stateMutability":"nonpayable"},{"type":"function","name":"buyTicket","inputs":[],"outputs":[],"stateMutability":"nonpayable"},{"type":"function","name":"owner","inputs":[],"outputs":[{"name":"","type":"address","internalType":"address"}],"stateMutability":"view"},{"type":"function","name":"renounceOwnership","inputs":[],"outputs":[],"stateMutability":"nonpayable"},{"type":"function","name":"setTicketPrice","inputs":[{"name":"_newPrice","type":"uint256","internalType":"uint256"}],"outputs":[],"stateMutability":"nonpayable"},{"type":"function","name":"ticketDetails","inputs":[],"outputs":[{"name":"ticket_price","type":"uint256","internalType":"uint256"}],"stateMutability":"view"},{"type":"function","name":"ticketNFT","inputs":[],"outputs":[{"name":"","type":"address","internalType":"contract TicketNft"}],"stateMutability":"view"},{"type":"function","name":"ticketsSold","inputs":[],"outputs":[{"name":"","type":"uint256","internalType":"uint256"}],"stateMutability":"view"},{"type":"function","name":"token","inputs":[],"outputs":[{"name":"","type":"address","internalType":"contract TicketToken"}],"stateMutability":"view"},{"type":"function","name":"transferOwnership","inputs":[{"name":"newOwner","type":"address","internalType":"address"}],"outputs":[],"stateMutability":"nonpayable"},{"type":"event","name":"OwnershipTransferred","inputs":[{"name":"previousOwner","type":"address","indexed":true,"internalType":"address"},{"name":"newOwner","type":"address","indexed":true,"internalType":"address"}],"anonymous":false},{"type":"event","name":"TicketPurchased","inputs":[{"name":"buyer","type":"address","indexed":true,"internalType":"address"},{"name":"ticketId","type":"uint256","indexed":false,"internalType":"uint256"}],"anonymous":false},{"type":"error","name":"OwnableInvalidOwner","inputs":[{"name":"owner","type":"address","internalType":"address"}]},{"type":"error","name":"OwnableUnauthorizedAccount","inputs":[{"name":"account","type":"address","internalType":"address"}]}],"bytecode":{"object":"0x608060405234801561000f575f5ffd5b50604051610faa380380610faa833981810160405281019061003191906102af565b335f73ffffffffffffffffffffffffffffffffffffffff168173ffffffffffffffffffffffffffffffffffffffff16036100a2575f6040517f1e4fbdf7000000000000000000000000000000000000000000000000000000008152600401610099919061030e565b60405180910390fd5b6100b18161015d60201b60201c565b508260015f6101000a81548173ffffffffffffffffffffffffffffffffffffffff021916908373ffffffffffffffffffffffffffffffffffffffff1602179055508160025f6101000a81548173ffffffffffffffffffffffffffffffffffffffff021916908373ffffffffffffffffffffffffffffffffffffffff16021790555060405180602001604052808281525060035f820151815f01559050505f600481905550505050610327565b5f5f5f9054906101000a900473ffffffffffffffffffffffffffffffffffffffff169050815f5f6101000a81548173ffffffffffffffffffffffffffffffffffffffff021916908373ffffffffffffffffffffffffffffffffffffffff1602179055508173ffffffffffffffffffffffffffffffffffffffff168173ffffffffffffffffffffffffffffffffffffffff167f8be0079c531659141344cd1fd0a4f28419497f9722a3daafe3b4186f6b6457e060405160405180910390a35050565b5f5ffd5b5f73ffffffffffffffffffffffffffffffffffffffff82169050919050565b5f61024b82610222565b9050919050565b61025b81610241565b8114610265575f5ffd5b50565b5f8151905061027681610252565b92915050565b5f819050919050565b61028e8161027c565b8114610298575f5ffd5b50565b5f815190506102a981610285565b92915050565b5f5f5f606084860312156102c6576102c561021e565b5b5f6102d386828701610268565b93505060206102e486828701610268565b92505060406102f58682870161029b565b9150509250925092565b61030881610241565b82525050565b5f6020820190506103215f8301846102ff565b92915050565b610c76806103345f395ff3fe608060405234801561000f575f5ffd5b5060043610610091575f3560e01c8063b393391b11610064578063b393391b146100f7578063e26784b814610115578063edca914c14610133578063f2fde38b1461013d578063fc0c546a1461015957610091565b80631598165014610095578063715018a6146100b15780638da5cb5b146100bb5780638f15024f146100d9575b5f5ffd5b6100af60048036038101906100aa91906107dc565b610177565b005b6100b961018b565b005b6100c361019e565b6040516100d09190610846565b60405180910390f35b6100e16101c5565b6040516100ee919061086e565b60405180910390f35b6100ff6101cb565b60405161010c91906108e2565b60405180910390f35b61011d6101f0565b60405161012a919061086e565b60405180910390f35b61013b6101fb565b005b61015760048036038101906101529190610925565b6105ad565b005b610161610631565b60405161016e9190610970565b60405180910390f35b61017f610656565b8060035f018190555050565b610193610656565b61019c5f6106dd565b565b5f5f5f9054906101000a900473ffffffffffffffffffffffffffffffffffffffff16905090565b60045481565b60025f9054906101000a900473ffffffffffffffffffffffffffffffffffffffff1681565b6003805f0154905081565b60035f015460015f9054906101000a900473ffffffffffffffffffffffffffffffffffffffff1673ffffffffffffffffffffffffffffffffffffffff166370a08231336040518263ffffffff1660e01b815260040161025a9190610846565b602060405180830381865afa158015610275573d5f5f3e3d5ffd5b505050506040513d601f19601f82011682018060405250810190610299919061099d565b10156102da576040517f08c379a00000000000000000000000000000000000000000000000000000000081526004016102d190610a22565b60405180910390fd5b60035f015460015f9054906101000a900473ffffffffffffffffffffffffffffffffffffffff1673ffffffffffffffffffffffffffffffffffffffff1663dd62ed3e33306040518363ffffffff1660e01b815260040161033b929190610a40565b602060405180830381865afa158015610356573d5f5f3e3d5ffd5b505050506040513d601f19601f8201168201806040525081019061037a919061099d565b10156103bb576040517f08c379a00000000000000000000000000000000000000000000000000000000081526004016103b290610ab1565b60405180910390fd5b5f60015f9054906101000a900473ffffffffffffffffffffffffffffffffffffffff1673ffffffffffffffffffffffffffffffffffffffff166323b872dd3361040261019e565b60035f01546040518463ffffffff1660e01b815260040161042593929190610acf565b6020604051808303815f875af1158015610441573d5f5f3e3d5ffd5b505050506040513d601f19601f820116820180604052508101906104659190610b39565b9050806104a7576040517f08c379a000000000000000000000000000000000000000000000000000000000815260040161049e90610bae565b60405180910390fd5b5f60025f9054906101000a900473ffffffffffffffffffffffffffffffffffffffff1673ffffffffffffffffffffffffffffffffffffffff16636a627842336040518263ffffffff1660e01b81526004016105029190610846565b6020604051808303815f875af115801561051e573d5f5f3e3d5ffd5b505050506040513d601f19601f82011682018060405250810190610542919061099d565b905060045f81548092919061055690610bf9565b91905055503373ffffffffffffffffffffffffffffffffffffffff167f0668f5b446eb814fe35b3206f43f14bd8567ba04ddaf7a3ee56516929ab22ccb826040516105a1919061086e565b60405180910390a25050565b6105b5610656565b5f73ffffffffffffffffffffffffffffffffffffffff168173ffffffffffffffffffffffffffffffffffffffff1603610625575f6040517f1e4fbdf700000000000000000000000000000000000000000000000000000000815260040161061c9190610846565b60405180910390fd5b61062e816106dd565b50565b60015f9054906101000a900473ffffffffffffffffffffffffffffffffffffffff1681565b61065e61079e565b73ffffffffffffffffffffffffffffffffffffffff1661067c61019e565b73ffffffffffffffffffffffffffffffffffffffff16146106db5761069f61079e565b6040517f118cdaa70000000000000000000000000000000000000000000000000000000081526004016106d29190610846565b60405180910390fd5b565b5f5f5f9054906101000a900473ffffffffffffffffffffffffffffffffffffffff169050815f5f6101000a81548173ffffffffffffffffffffffffffffffffffffffff021916908373ffffffffffffffffffffffffffffffffffffffff1602179055508173ffffffffffffffffffffffffffffffffffffffff168173ffffffffffffffffffffffffffffffffffffffff167f8be0079c531659141344cd1fd0a4f28419497f9722a3daafe3b4186f6b6457e060405160405180910390a35050565b5f33905090565b5f5ffd5b5f819050919050565b6107bb816107a9565b81146107c5575f5ffd5b50565b5f813590506107d6816107b2565b92915050565b5f602082840312156107f1576107f06107a5565b5b5f6107fe848285016107c8565b91505092915050565b5f73ffffffffffffffffffffffffffffffffffffffff82169050919050565b5f61083082610807565b9050919050565b61084081610826565b82525050565b5f6020820190506108595f830184610837565b92915050565b610868816107a9565b82525050565b5f6020820190506108815f83018461085f565b92915050565b5f819050919050565b5f6108aa6108a56108a084610807565b610887565b610807565b9050919050565b5f6108bb82610890565b9050919050565b5f6108cc826108b1565b9050919050565b6108dc816108c2565b82525050565b5f6020820190506108f55f8301846108d3565b92915050565b61090481610826565b811461090e575f5ffd5b50565b5f8135905061091f816108fb565b92915050565b5f6020828403121561093a576109396107a5565b5b5f61094784828501610911565b91505092915050565b5f61095a826108b1565b9050919050565b61096a81610950565b82525050565b5f6020820190506109835f830184610961565b92915050565b5f81519050610997816107b2565b92915050565b5f602082840312156109b2576109b16107a5565b5b5f6109bf84828501610989565b91505092915050565b5f82825260208201905092915050565b7f496e73756666696369656e7420746f6b656e73000000000000000000000000005f82015250565b5f610a0c6013836109c8565b9150610a17826109d8565b602082019050919050565b5f6020820190508181035f830152610a3981610a00565b9050919050565b5f604082019050610a535f830185610837565b610a606020830184610837565b9392505050565b7f546f6b656e20616c6c6f77616e636520746f6f206c6f770000000000000000005f82015250565b5f610a9b6017836109c8565b9150610aa682610a67565b602082019050919050565b5f6020820190508181035f830152610ac881610a8f565b9050919050565b5f606082019050610ae25f830186610837565b610aef6020830185610837565b610afc604083018461085f565b949350505050565b5f8115159050919050565b610b1881610b04565b8114610b22575f5ffd5b50565b5f81519050610b3381610b0f565b92915050565b5f60208284031215610b4e57610b4d6107a5565b5b5f610b5b84828501610b25565b91505092915050565b7f546f6b656e207472616e73666572206661696c656400000000000000000000005f82015250565b5f610b986015836109c8565b9150610ba382610b64565b602082019050919050565b5f6020820190508181035f830152610bc581610b8c565b9050919050565b7f4e487b71000000000000000000000000000000000000000000000000000000005f52601160045260245ffd5b5f610c03826107a9565b91507fffffffffffffffffffffffffffffffffffffffffffffffffffffffffffffffff8203610c3557610c34610bcc565b5b60018201905091905056fea264697066735822122005d6daea1e207b9af29e260d8ace4d77da7772232edb66836f1ea9c6cb0cc93d64736f6c634300081c0033","linkReferences":{}},"methodIdentifiers":{"buyTicket()":"edca914c","owner()":"8da5cb5b","renounceOwnership()":"715018a6","setTicketPrice(uint256)":"15981650","ticketDetails()":"e26784b8","ticketNFT()":"b393391b","ticketsSold()":"8f15024f","token()":"fc0c546a","transferOwnership(address)":"f2fde38b"},"id":19}